:020000040800F2
:1000000000280020591B0008E91A0008EF1A000810
:10001000F51A0008FB1A0008011B00080000000088
:10002000000000000000000000000000071B0008A6
:10003000131B0008000000001F1B00082B1B0008FA
:10004000A11B0008A11B0008A11B0008A11B0008A0
:10005000A11B0008A11B0008A11B0008A11B000890
:10006000A11B0008A11B0008A11B0008A11B000880
:10007000A11B0008A11B0008A11B0008A11B000870
:10008000A11B0008A11B0008A11B0008A11B000860
:10009000A11B0008A11B0008A11B0008A11B000850
:1000A000A11B0008A11B0008A11B0008A11B000840
:1000B000391B0008A11B000800000000A11B00085C
:1000C000A11B00080000000000000000A11B0008A8
:1000D00000000000A11B0008A11B00080000000098
:1000E000A11B0008A11B0008A11B000800000000C4
:1000F0000000000000000000000000000000000000
:0C01000000000000000000005FF808F1A3
:10010C0010B5054C237833B9044B13B10448AFF345
:10011C0000800123237010BD64000020000000004B
:10012C00D031000808B5034B1BB103490348AFF3AA
:10013C00008008BD0000000068000020D0310008DD
:10014C0080B582B000AF7860396000F0CBFD03461B
:10015C00012B18D17B681B6803F57A727B681A60D7
:10016C007B681B680A4A934203DD7B684FF47A7202
:10017C001A607B681B68074A82FB03129211DB171B
:10018C00D21A3B681A6000BF0837BD4680BD00BF5D
:10019C00B8820100D34D621080B582B000AF786098
:1001AC00396000F0B1FD0346012B07D17B681B6859
:1001BC004FF47A7202FB03F23B681A6000BF0837F7
:1001CC00BD4680BD80B582B000AF78607B68092BDE
:1001DC0000F2808101A252F823F000BF1102000846
:1001EC0059020008A1020008E902000831030008C6
:1001FC0079030008C1030008090400085104000831
:10020C009904000800220221B44801F0C6FF002224
:10021C000421B24801F0C1FF00220821AF4801F0CF
:10022C00BCFF00221021AD4801F0B7FF00222021B5
:10023C00AA4801F0B2FF00224021A84801F0ADFF0E
:10024C0001228021A54801F0A8FF43E101220221EF
:10025C00A24801F0A2FF00220421A04801F09DFF5A
:10026C00002208219D4801F098FF012210219B4893
:10027C0001F093FF01222021984801F08EFF01220A
:10028C004021964801F089FF01228021934801F01A
:10029C0084FF1FE100220221904801F07EFF002222
:1002AC0004218E4801F079FF012208218B4801F0CE
:1002BC0074FF00221021894801F06FFF00222021D9
:1002CC00864801F06AFF01224021844801F065FF55
:1002DC0000228021814801F060FFFBE00022022116
:1002EC007E4801F05AFF002204217C4801F055FFA2
:1002FC0000220821794801F050FF00221021774894
:10030C0001F04BFF01222021744801F046FF01222D
:10031C004021724801F041FF002280216F4801F01A
:10032C003CFFD7E0012202216C4801F036FF00228D
:10033C0004216A4801F031FF00220821674801F0CE
:10034C002CFF01221021654801F027FF01222021FA
:10035C00624801F022FF00224021604801F01DFF9D
:10036C00002280215D4801F018FFB3E00022022139
:10037C005A4801F012FF01220421584801F00DFFE8
:10038C0000220821554801F008FF00221021534893
:10039C0001F003FF01222021504801F0FEFE002253
:1003AC0040214E4801F0F9FE002280214B4801F01B
:1003BC00F4FE8FE000220221484801F0EEFE0122FB
:1003CC000421464801F0E9FE00220821434801F0CF
:1003DC00E4FE00221021414801F0DFFE0022202122
:1003EC003E4801F0DAFE002240213C4801F0D5FEE7
:1003FC0000228021394801F0D0FE6BE0002202215E
:10040C00364801F0CAFE00220421344801F0C5FE32
:10041C0000220821314801F0C0FE012210212F4892
:10042C0001F0BBFE012220212C4801F0B6FE012276
:10043C0040212A4801F0B1FE01228021274801F019
:10044C00ACFE47E000220221244801F0A6FE002267
:10045C000421224801F0A1FE002208211F4801F0CE
:10046C009CFE002210211D4801F097FE0022202145
:10047C001A4801F092FE00224021184801F08DFE2E
:10048C0000228021154801F088FE23E00022022181
:10049C00124801F082FE00220421104801F07DFE7A
:1004AC00002208210D4801F078FE002210210B4893
:1004BC0001F073FE01222021084801F06EFE00229B
:1004CC004021064801F069FE00228021034801F01A
:1004DC0064FE00BF00BF0837BD4680BD000C014064
:1004EC0080B582B000AF78607B68092B00F2C981BF
:1004FC0001A252F823F000BF2D0500088305000867
:10050C00D90500082F06000885060008DB06000840
:10051C003107000887070008DD07000839080008C4
:10052C0000224FF48071C04801F037FE00224FF4D6
:10053C000071BD4801F031FE00224FF48061BA48D1
:10054C0001F02BFE00224FF40061B74801F025FEAC
:10055C0000224FF48051B44801F01FFE00224FF4EA
:10056C000051B14801F019FE01224FF48041AE4810
:10057C0001F013FE85E101224FF48071AA4801F0CD
:10058C000CFE00224FF40071A74801F006FE002279
:10059C004FF48061A44801F000FE01224FF4006189
:1005AC00A14801F0FAFD01224FF480519E4801F060
:1005BC00F4FD01224FF400519B4801F0EEFD0122A5
:1005CC004FF48041984801F0E8FD5AE100224FF4C5
:1005DC008071954801F0E1FD00224FF400719248C2
:1005EC0001F0DBFD01224FF480618F4801F0D5FD55
:1005FC0000224FF400618C4801F0CFFD00224FF433
:10060C008051894801F0C9FD01224FF40051864800
:10061C0001F0C3FD00224FF48041834801F0BDFD81
:10062C002FE100224FF480717F4801F0B6FD0022CB
:10063C004FF400717C4801F0B0FD00224FF4806152
:10064C00794801F0AAFD00224FF40061764801F0D0
:10065C00A4FD01224FF48051734801F09EFD01224C
:10066C004FF40051704801F098FD00224FF4804186
:10067C006D4801F092FD04E101224FF480716A484B
:10068C0001F08BFD00224FF40071674801F085FDED
:10069C0000224FF48061644801F07FFD01224FF489
:1006AC000061614801F079FD01224FF480515E48F0
:1006BC0001F073FD00224FF400515B4801F06DFD19
:1006CC0000224FF48041584801F067FDD9E0002228
:1006DC004FF48071544801F060FD01224FF4007119
:1006EC00514801F05AFD00224FF480614E4801F050
:1006FC0054FD00224FF400614B4801F04EFD0122E5
:10070C004FF48051484801F048FD00224FF400514D
:10071C00454801F042FD00224FF48041424801F06F
:10072C003CFDAEE000224FF480713F4801F035FDF6
:10073C0001224FF400713C4801F02FFD00224FF4D0
:10074C008061394801F029FD00224FF400613648E0
:10075C0001F023FD00224FF48051334801F01DFDC0
:10076C0000224FF40051304801F017FD00224FF4E5
:10077C0080412D4801F011FD83E000224FF480717F
:10078C00294801F00AFD00224FF40071264801F0BF
:10079C0004FD00224FF48061234801F0FEFC01228D
:1007AC004FF40061204801F0F8FC01224FF4805115
:1007BC001D4801F0F2FC01224FF400511A4801F0DF
:1007CC00ECFC01224FF48041174801F0E6FC58E0A4
:1007DC0000224FF48071144801F0DFFC00224FF42A
:1007EC000071114801F0D9FC00224FF480610E48D1
:1007FC0001F0D3FC00224FF400610B4801F0CDFC5A
:10080C0000224FF48051084801F0C7FC00224FF43D
:10081C000051054801F0C1FC00224FF48041024810
:10082C0001F0BBFC2DE000BF000C014000224FF496
:10083C008071164801F0B1FC00224FF4007113488E
:10084C0001F0ABFC00224FF48061104801F0A5FCD4
:10085C0000224FF400610D4801F09FFC01224FF47F
:10086C0080510A4801F099FC00224FF400510748CE
:10087C0001F093FC00224FF48041044801F08DFC00
:10088C0000BF00BF0837BD4680BD00BF000C014053
:10089C0080B582B000AF78607B68092B00F2BC8118
:1008AC0001A252F823F000BFDD080008310900084E
:1008BC0085090008D90900082D0A0008810A0008DA
:1008CC00D50A0008290B00087D0B0008D10B000885
:1008DC0000224FF48061D24801F05FFC00224FF4FB
:1008EC000061CF4801F059FC00224FF48051CC48F4
:1008FC0001F053FC00224FF40051C94801F04DFCAB
:10090C0000224FF48041C64801F047FC00224FF40E
:10091C000041C34801F041FC01220121C14801F012
:10092C003CFC79E101224FF48061BD4801F035FCBB
:10093C0000224FF40061BA4801F02FFC00224FF462
:10094C008051B74801F029FC01224FF40051B44802
:10095C0001F023FC01224FF48041B14801F01DFC51
:10096C0001224FF40041AE4801F017FC0122012195
:10097C00AC4801F012FC4FE100224FF48061A84812
:10098C0001F00BFC00224FF40061A54801F005FCBE
:10099C0001224FF48051A24801F0FFFB00224FF4DA
:1009AC0000519F4801F0F9FB00224FF480419C4814
:1009BC0001F0F3FB01224FF40041994801F0EDFBEB
:1009CC0000220121974801F0E8FB25E100224FF4B9
:1009DC008061934801F0E1FB00224FF400619048E4
:1009EC0001F0DBFB00224FF480518D4801F0D5FB68
:1009FC0000224FF400518A4801F0CFFB01224FF442
:100A0C008041874801F0C9FB01224FF40041844822
:100A1C0001F0C3FB00220121824801F0BEFBFBE088
:100A2C0001224FF480617E4801F0B7FB00224FF4A5
:100A3C0000617B4801F0B1FB00224FF480517848F3
:100A4C0001F0ABFB01224FF40051754801F0A5FBFE
:100A5C0001224FF48041724801F09FFB00224FF4B9
:100A6C0000416F4801F099FB002201216D4801F013
:100A7C0094FBD1E000224FF48061694801F08DFBBA
:100A8C0001224FF40061664801F087FB00224FF40D
:100A9C008051634801F081FB00224FF40051604803
:100AAC0001F07BFB01224FF480415D4801F075FBA6
:100ABC0000224FF400415A4801F06FFB0022012143
:100ACC00584801F06AFBA7E000224FF480615448BB
:100ADC0001F063FB01224FF40061514801F05DFB12
:100AEC0000224FF480514E4801F057FB00224FF486
:100AFC0000514B4801F051FB00224FF48041484813
:100B0C0001F04BFB00224FF40041454801F045FB3E
:100B1C0000220121434801F040FB7DE000224FF40C
:100B2C0080613F4801F039FB00224FF400613C48E2
:100B3C0001F033FB00224FF48051394801F02DFBBA
:100B4C0001224FF40051364801F027FB01224FF4EB
:100B5C008041334801F021FB01224FF40041304821
:100B6C0001F01BFB012201212E4801F016FB53E082
:100B7C0000224FF480612A4801F00FFB00224FF451
:100B8C000061274801F009FB00224FF480512448F2
:100B9C0001F003FB00224FF40051214801F0FDFA53
:100BAC0000224FF480411E4801F0F7FA00224FF466
:100BBC0000411B4801F0F1FA00220121194801F013
:100BCC00ECFA29E000224FF48061154801F0E5FAB7
:100BDC0000224FF40061124801F0DFFA00224FF4BA
:100BEC0080510F4801F0D9FA00224FF400510C4803
:100BFC0001F0D3FA01224FF48041094801F0CDFAFB
:100C0C0000224FF40041064801F0C7FA00220121EE
:100C1C00044801F0C2FA00BF00BF0837BD4680BDD2
:100C2C0000080140000C014080B582B000AF786034
:100C3C007B68002B03D07B68012B17D032E000229D
:100C4C0001211A4801F0A9FA01224FF40041184879
:100C5C0001F0A3FA174B1B68174A82FB03125211BF
:100C6C00DB17D31A1846FFF713FE1BE001220121F4
:100C7C000E4801F092FA00224FF400410C4801F0AA
:100C8C008CFA0C4B1A680D4B83FB02139910D3177B
:100C9C00C91A0B469B000B445B00D11A0846FFF7A0
:100CAC00F7FD00BF00BF0837BD4680BD00080140FE
:100CBC00000C0140980000201F85EB5167666666AA
:100CCC0080B400AF064B1B68012B04D1044B0022EF
:100CDC001A60012300E000231846BD4680BC704713
:100CEC008000002080B400AF064B1B68012B04D1A0
:100CFC00044B00221A60012300E000231846BD4675
:100D0C0080BC70478400002080B400AF064B1B6889
:100D1C00012B04D1044B00221A60012300E00023B4
:100D2C001846BD4680BC70478800002080B400AFD8
:100D3C00034B01221A6000BFBD4680BC704700BF48
:100D4C008000002080B400AF034B01221A6000BF6A
:100D5C00BD4680BC704700BF8400002080B400AF4B
:100D6C00034B01221A6000BFBD4680BC704700BF18
:100D7C008800002080B500AF5A4B1B685A4A13609C
:100D8C005A4B1B68574A13600221594801F0EEF97F
:100D9C0003461A46554B1A60534B1A68514B1B6845
:100DAC009A4225D14F4B1A68504B1B689A421FD15F
:100DBC00504B1A684D4B1B689A420DD04B4B1B681D
:100DCC004C4A1360494B1B68002B11D1FFF7AEFF47
:100DDC00494BC8221A600BE0474B1B68013B464A43
:100DEC001360454B1B68002B02D1424B01221A6049
:100DFC00424B1B68424A1360424B1B683F4A1360CC
:100E0C0004213B4801F0B2F903461A463D4B1A60E7
:100E1C003B4B1A68394B1B689A4225D1374B1A68E1
:100E2C00384B1B689A421FD1374B1A68354B1B68DD
:100E3C009A420DD0334B1B68334A1360314B1B68FD
:100E4C00002B11D1FFF77EFF304BC8221A600BE04C
:100E5C002E4B1B68013B2D4A13602C4B1B68002B3F
:100E6C0002D1294B01221A60294B1B68294A1360B5
:100E7C00294B1B68264A136008211D4801F076F99E
:100E8C0003461A46244B1A60224B1A68204B1B68E7
:100E9C009A4225D11E4B1A681F4B1B689A421FD1D0
:100EAC001E4B1A681C4B1B689A420DD01A4B1B68C0
:100EBC001A4A1360184B1B68002B11D1FFF74EFF19
:100ECC00174BC8221A600BE0154B1B68013B144AE8
:100EDC001360134B1B68002B02D1104B01221A60BC
:100EEC0000BF80BD0400002000000020080000208E
:100EFC00000801400C0000203000002014000020ED
:100F0C0010000020180000201C00002034000020DD
:100F1C002400002020000020280000202C000020AD
:100F2C003800002080B500AFAC4B1B68013B032B95
:100F3C0000F2188101A252F823F000BF590F0008EB
:100F4C00A10F00083D100008D71000080122402115
:100F5C00A34801F022F901222021A14801F01DF93A
:100F6C00012210219E4801F018F99C4B02221A60B4
:100F7C004FF47A7000F09EFCFA2000F0E9FC994BDB
:100F8C001B68994A82FB03129211DB17D31A974AFA
:100F9C001360EEE000224021914801F0FEF801229E
:100FAC0020218F4801F0F9F8012210218C4801F022
:100FBC00F4F88F4B1B68012B23D18C4B1B68013B26
:100FCC008A4A13604FF47A7000F074FC874B1B68EC
:100FDC00884A82FB03129210DB17D31A1846FFF7CC
:100FEC00F1F8824B1A68834B83FB02139910D317C9
:100FFC00C91A0B469B000B445B00D11A0846FFF73D
:10100C006FFA7A4B1B68002B00F3AE80734B0322F4
:10101C001A604FF47A7000F04DFC774B1B68724AE3
:10102C0082FB03129211DB17D31A744A13609BE0F4
:10103C00012240216A4801F0B0F8012220216848C1
:10104C0001F0ABF800221021654801F0A6F8684BBE
:10105C001B68012B23D1694B1B68013B674A13604A
:10106C004FF47A7000F026FC644B1B68614A82FBDB
:10107C0003129210DB17D31A1846FFF7A3F85F4B35
:10108C001A685C4B83FB02139910D317C91A0B46D1
:10109C009B000B445B00D11A0846FFF721FA574B13
:1010AC001B68002B62DC4D4B04221A604FF47A70E3
:1010BC0000F000FC524B1B684B4A82FB031292114E
:1010CC00DB17D31A4F4A136050E0012240214448E9
:1010DC0001F063F800222021414801F05EF8012262
:1010EC0010213F4801F059F8414B1B68012B23D1CB
:1010FC00444B1B68013B434A13604FF47A7000F079
:10110C00D9FB404B1B683B4A82FB03129210DB1746
:10111C00D31A1846FFF756F83A4B1A68354B83FB2F
:10112C0002139910D317C91A0B469B000B445B0092
:10113C00D11A0846FFF7D4F9324B1B68002B17DC89
:10114C00264B02221A604FF47A7000F0B3FB254B49
:10115C001B68254A82FB03129211DB17D31A234A10
:10116C00136005E000BF04E000BF02E000BF00E038
:10117C0000BF254B1B68013B032B00F2E78001A24B
:10118C0052F823F0A1110008F112000821120008F6
:10119C008912000801224FF40071114800F0FDFF84
:1011AC0001224FF480710E4800F0F7FF01228021DC
:1011BC000B4800F0F2FF144B03221A604FF47A70C4
:1011CC0000F092FB114B1B68074A82FB0312921131
:1011DC00DB17D31A0E4A1360BFE000BF900000204B
:1011EC000008014040000020D34D6210C4000020D4
:1011FC00A0000020676666663C000020CC00002042
:10120C0044000020D0000020940000204800002062
:10121C00BC00002001224FF40071514800F0BDFFCA
:10122C0001224FF480714E4800F0B7FF002280215C
:10123C004B4800F0B2FF4B4B1B68012B08D14A4BBB
:10124C001B68013B484A13604FF47A7000F04CFB6A
:10125C00454B1B68002B7BDC444B04221A60444B2F
:10126C001B68444A82FB03129211DB17D31A424AC1
:10127C0013604FF47A7000F037FB69E001224FF4F1
:10128C000071374800F089FF00224FF48071344818
:10129C0000F083FF01228021314800F07EFF314BAA
:1012AC001B68012B08D1344B1B68013B324A13607D
:1012BC004FF47A7000F018FB2F4B1B68002B49DCA5
:1012CC002A4B02221A602D4B1B682A4A82FB0312FE
:1012DC009211DB17D31A2A4A13604FF47A7000F07C
:1012EC0003FB37E000224FF400711D4800F055FF5E
:1012FC0001224FF480711A4800F04FFF0122802127
:10130C00174800F04AFF174B1B68012B08D11C4BE8
:10131C001B68013B1A4A13604FF47A7000F0E4FA30
:10132C00174B1B68002B17DC104B03221A60154B54
:10133C001B68104A82FB03129211DB17D31A0A4A5C
:10134C0013604FF47A7000F0CFFA05E000BF04E0B0
:10135C0000BF02E000BF00E000BF00BF80BD00BFC7
:10136C0000080140A8000020BC00002094000020D0
:10137C0050000020D34D6210C00000204C00002013
:10138C00C80000204800002080B500AFAD4B1B68A2
:10139C00012B0CD1AC4B1B681846FFF745FCAA4B34
:1013AC001B680133A84A1360FA2000F0D1FAA64B4F
:1013BC001B68012B02DDA44B00221A60A34B1B6897
:1013CC00013B0D2B00F2328101A252F823F000BF39
:1013DC0015140008391600083916000839160008CB
:1013EC003916000839160008391600083916000895
:1013FC00391600083916000839160008331400088D
:10140C00E11400088D150008FFF78CFDFFF758FC60
:10141C000346012B40F00C818C4B0C221A60FA20F5
:10142C0000F07CFA04E18A4B1B688A4A82FB0312A7
:10143C009211DB17D31A884A1360884B1B68012B57
:10144C0021D14021864800F0C0FEFA2000F066FA57
:10145C00814B1B68834A82FB03129210DB17D31A51
:10146C001846FEF7AFFE7C4B1A687E4B83FB0213CB
:10147C009910D317C91A0B469B000B445B00D11A69
:10148C000846FFF72DF801222021754800F085FE53
:10149C0001221021724800F080FE6F496C48FEF763
:1014AC004FFE6B496C48FEF777FEFFF709FC0346CD
:1014BC00012B05D1654B0D221A60FA2000F02EFA93
:1014CC00FFF722FC0346012B40F0B4805F4B012256
:1014DC001A60AFE0644B1B685E4A82FB03129211E8
:1014EC00DB17D31A614A13605C4B1B68012B21D1AB
:1014FC0010215B4800F069FEFA2000F00FFA5B4BFC
:10150C001B68584A82FB03129210DB17D31A184639
:10151C00FEF758FE554B1A68524B83FB0213991079
:10152C00D317C91A0B469B000B445B00D11A084613
:10153C00FEF7D6FF01222021494800F02EFE0122A1
:10154C004021474800F029FE48494748FEF7F8FD7E
:10155C0045494648FEF720FEFFF7B2FB0346012B38
:10156C0005D13A4B0E221A60FA2000F0D7F9FFF79A
:10157C00CBFB0346012B5FD1344B01221A605BE09D
:10158C003B4B1B68334A82FB03129211DB17D31AB5
:10159C00384A1360314B1B68012B21D12021304874
:1015AC0000F013FEFA2000F0B9F9324B1B682D4AFB
:1015BC0082FB03129210DB17D31A1846FEF702FEB9
:1015CC002C4B1A68274B83FB02139910D317C91A9B
:1015DC000B469B000B445B00D11A0846FEF780FFBC
:1015EC00012240211E4800F0D8FD012210211C4888
:1015FC0000F0D3FD1F491E48FEF7A2FD1C491D48F3
:10160C00FEF7CAFDFFF75CFB0346012B05D10F4B20
:10161C0001221A60FA2000F081F9FFF775FB0346EE
:10162C00012B0BD1094B01221A6007E000BF06E029
:10163C0000BF04E000BF02E000BF00E000BF00BF3D
:10164C0080BD00BFB80000208C0000209800002056
:10165C0040000020D34D6210D8000020B0000020C4
:10166C0000080140676666663C000020D40000203C
:10167C0044000020DC00002080B500AF00F08CFAA4
:10168C0000F01CF800F0A2F800F054F8074801F044
:10169C00E1F9074B01221A60064B01221A60064B36
:1016AC0001221A60FFF770FEFCE700BFE00000208B
:1016BC0090000020940000209800002080B590B08D
:1016CC0000AF07F1180328220021184601F072FD23
:1016DC003B1D00221A605A609A60DA601A6102237C
:1016EC00BB610123BB621023FB6200237B6307F108
:1016FC001803184600F082FD0346002B01D000F0C1
:10170C00D3F80F237B600023BB600023FB60002316
:10171C003B6100237B613B1D0021184600F0EEFF6E
:10172C000346002B01D000F0BFF800BF4037BD4688
:10173C0080BD000080B586B000AF07F10803002221
:10174C001A605A609A60DA603B4600221A605A604E
:10175C001D4B4FF080421A601B4B41F63F725A6092
:10176C00194B00229A60184B0922DA60164B0022A2
:10177C001A61154B00229A61134801F01BF90346BC
:10178C00002B01D000F090F84FF48053BB6007F1B0
:10179C00080319460C4801F099FA0346002B01D0B6
:1017AC0000F082F800233B6000237B603B46194627
:1017BC00054801F071FC0346002B01D000F074F8D1
:1017CC0000BF1837BD4680BDE000002080B586B054
:1017DC0000AF07F1080300221A605A609A60DA60C1
:1017EC00284B9B69274A43F004039361254B9B6963
:1017FC0003F004037B607B68224B9B69214A43F016
:10180C00080393611F4B9B6903F008033B603B6823
:10181C0000224FF6F1711C4800F0BFFC00224FF67D
:10182C00FF711A4800F0B9FC4FF6F173BB6001234D
:10183C00FB6000233B6102237B6107F1080319461F
:10184C00114800F019FB0E23BB600023FB60012341
:10185C003B6107F1080319460B4800F00DFB4FF6EE
:10186C00FF73BB600123FB6000233B6102237B61A0
:10187C0007F108031946054800F0FEFA00BF1837B7
:10188C00BD4680BD0010024000080140000C014024
:10189C0080B582B000AF786000F074F8FFF76AFA98
:1018AC0000BF0837BD4680BD80B400AF72B600BF24
:1018BC00FEE7000080B483B000AF7860074B1B6874
:1018CC007A6892FBF3F3064A1360064B00221A6007
:1018DC0000BF0C37BD4680BC704700BF54000020D1
:1018EC009C000020A000002080B483B000AF786082
:1018FC00074B1B687A6892FBF3F3064A1360064B9E
:10190C0000221A6000BF0C37BD4680BC704700BF78
:10191C0054000020A4000020A800002080B483B054
:10192C0000AF7860074B1B687A6892FBF3F3064AAA
:10193C001360064B00221A6000BF0C37BD4680BCFA
:10194C00704700BF54000020AC000020B000002005
:10195C0080B483B000AF7860074B1B687A6892FB49
:10196C00F3F3064A1360064B00221A6000BF0C37D3
:10197C00BD4680BC704700BF54000020B40000205E
:10198C00B800002080B400AF214B1B68002B0BDD8E
:10199C001F4B1B68013B1E4A13601D4B1B68002B21
:1019AC0002DC1C4B01221A601B4B1B68002B0BDD4D
:1019BC00194B1B68013B184A1360174B1B68002B13
:1019CC0002DC164B01221A60154B1B68002B0BDD39
:1019DC00134B1B68013B124A1360114B1B68002B05
:1019EC0002DC104B01221A600F4B1B68002B0BDD25
:1019FC000D4B1B68013B0C4A13600B4B1B68002BF7
:101A0C0002DC0A4B01221A6000BFBD4680BC704745
:101A1C009C000020A0000020A4000020A8000020B2
:101A2C00AC000020B0000020B4000020B800002062
:101A3C0080B485B000AF154B9B69144A43F0010389
:101A4C009361124B9B6903F00103BB60BB680F4BA6
:101A5C00DB690E4A43F08053D3610C4BDB6903F016
:101A6C0080537B607B680A4B5B68FB60FB6823F0F0
:101A7C00E063FB60FB6843F08063FB60044AFB6837
:101A8C00536000BF1437BD4680BC70470010024045
:101A9C000000014080B584B000AF78607B681B68A3
:101AAC00B3F1804F13D10C4BDB690B4A43F00103AC
:101ABC00D361094BDB6903F00103FB60FB68002277
:101ACC0000211C2000F0A1F91C2000F0BAF900BF85
:101ADC001037BD4680BD00BF0010024080B400AF7F
:101AEC00FEE780B400AFFEE780B400AFFEE780B441
:101AFC0000AFFEE780B400AFFEE780B400AF00BFDC
:101B0C00BD4680BC704780B400AF00BFBD4680BCF2
:101B1C00704780B400AF00BFBD4680BC704780B535
:101B2C0000AF00F07FF800BF80BD000080B500AFB3
:101B3C00024800F0DBFF00BF80BD00BFE0000020CA
:101B4C0080B400AF00BFBD4680BC7047FFF7F8FF04
:101B5C000B480C490C4A002302E0D458C4500433FF
:101B6C00C4188C42F9D3094A094C002301E01360D4
:101B7C000432A242FBD301F0F9FAFFF77DFD704766
:101B8C0000000020640000201432000864000020D3
:101B9C002C010020FEE7000080B500AF084B1B684D
:101BAC00074A43F010031360032000F023F90F20C1
:101BBC0000F008F8FFF73CFF0023184680BD00BF7B
:101BCC000020024080B582B000AF7860124B1A68DA
:101BDC00124B1B7819464FF47A73B3FBF1F3B2FB3B
:101BEC00F3F3184600F03BF90346002B01D0012318
:101BFC000EE07B680F2B0AD8002279684FF0FF307B
:101C0C0000F003F9064A7B681360002300E001230F
:101C1C0018460837BD4680BD5800002060000020E3
:101C2C005C00002080B400AF054B1B781A46054BB6
:101C3C001B681344034A136000BFBD4680BC704749
:101C4C00600000202801002080B400AF024B1B680C
:101C5C001846BD4680BC70472801002080B485B072
:101C6C0000AF78607B6803F00703FB600C4BDB680C
:101C7C00BB60BA684FF6FF031340BB60FB681A02E7
:101C8C00BB68134343F0BF6343F40033BB60044AA7
:101C9C00BB68D36000BF1437BD4680BC704700BF23
:101CAC0000ED00E080B400AF044BDB681B0A03F0CE
:101CBC0007031846BD4680BC704700BF00ED00E02E
:101CCC0080B483B000AF0346FB7197F90730002B4B
:101CDC000BDBFB7903F01F02064997F907305B0910
:101CEC00012000FA02F241F8232000BF0C37BD4658
:101CFC0080BC704700E100E080B483B000AF0346C5
:101D0C003960FB7197F90730002B0ADB3B68DAB2BC
:101D1C000C4997F907301201D2B20B4483F8002317
:101D2C000AE03B68DAB20849FB7903F00F03043B85
:101D3C001201D2B20B441A7600BF0C37BD4680BCE0
:101D4C00704700BF00E100E000ED00E080B489B016
:101D5C0000AFF860B9607A60FB6803F00703FB61C1
:101D6C00FB69C3F10703042B28BF0423BB61FB6988
:101D7C000433062B02D9FB69033B00E000237B6193
:101D8C004FF0FF32BB6902FA03F3DA43BB681A4027
:101D9C007B699A404FF0FF317B6901FA03F3D94319
:101DAC007B680B40134318462437BD4680BC7047F4
:101DBC0080B582B000AF78607B68013BB3F1807F67
:101DCC0001D301230FE00A4A7B68013B53600F21CA
:101DDC004FF0FF30FFF790FF054B00229A60044B49
:101DEC0007221A60002318460837BD4680BD00BF85
:101DFC0010E000E080B582B000AF78607868FFF743
:101E0C002DFF00BF0837BD4680BD80B586B000AF42
:101E1C000346B9607A60FB7300237B61FFF742FFD6
:101E2C0078617A68B9687869FFF790FF024697F98C
:101E3C000F3011461846FFF75FFF00BF1837BD463D
:101E4C0080BD80B582B000AF0346FB7197F90730B7
:101E5C001846FFF735FF00BF0837BD4680BD80B57B
:101E6C0082B000AF78607868FFF7A2FF034618468F
:101E7C000837BD4680BD000080B48BB000AF7860E1
:101E8C00396000237B6200233B6248E101227B6ABC
:101E9C0002FA03F3FB613B681B68FA691340BB61F0
:101EAC00BA69FB699A4240F037813B685B68A34A88
:101EBC0093425ED0A14A934275D8A14A934258D01E
:101ECC009F4A93426FD89F4A934252D09D4A934265
:101EDC0069D89D4A93424CD09B4A934263D89B4A03
:101EEC00934246D0994A93425DD8122B2AD8122B92
:101EFC0059D801A252F823F07F1F0008591F00087F
:101F0C006B1F0008AD1F0008B31F0008B31F0008AB
:101F1C00B31F0008B31F0008B31F0008B31F00084D
:101F2C00B31F0008B31F0008B31F0008B31F00083D
:101F3C00B31F0008B31F0008B31F0008611F00087F
:101F4C00751F0008824A934213D02CE03B68DB6873
:101F5C003B6229E03B68DB6804333B6224E03B686E
:101F6C00DB6808333B621FE03B68DB680C333B6289
:101F7C001AE03B689B68002B02D104233B6213E000
:101F8C003B689B68012B05D108233B627B68FA698F
:101F9C001A6109E008233B627B68FA695A6103E025
:101FAC0000233B6200E000BFBB69FF2B01D87B68BC
:101FBC0001E07B6804337B61BB69FF2B02D87B6A31
:101FCC009B0002E07B6A083B9B003B617B691A68C3
:101FDC000F213B6901FA03F3DB431A40396A3B6971
:101FEC0001FA03F31A437B691A603B685B6803F0E0
:101FFC008053002B00F09080564B9B69554A43F060
:10200C0001039361534B9B6903F00103BB60BB68F5
:10201C00514A7B6A9B08023352F82330FB607B6A7F
:10202C0003F003039B000F2202FA03F3DB43FA686D
:10203C001340FB607B68494A93420DD07B68484A49
:10204C00934207D07B68474A934201D1022304E0B4
:10205C00032302E0012300E000237A6A02F003026A
:10206C0092009340FA681343FB603B497B6A9B08E0
:10207C000233FA6841F823203B685B6803F4801351
:10208C00002B06D0384B9A683749BB6913438B60D9
:10209C0006E0354B9A68BB69DB43334913408B60D0
:1020AC003B685B6803F40013002B06D02E4BDA68F8
:1020BC002D49BB691343CB6006E02B4BDA68BB6937
:1020CC00DB4329491340CB603B685B6803F4003366
:1020DC00002B06D0244B5A682349BB6913434B6031
:1020EC0006E0214B5A68BB69DB431F4913404B6028
:1020FC003B685B6803F48033002B06D01A4B1A68DC
:10210C001949BB6913430B6006E0174B1A68BB698E
:10211C00DB43154913400B607B6A01337B623B68E0
:10212C001A687B6A22FA03F3002B7FF4AFAE00BF70
:10213C0000BF2C37BD4680BC704700BF000032107A
:10214C0000003110000022100000211000001210BD
:10215C000000111000100240000001400008014076
:10216C00000C0140001001400004014080B485B017
:10217C0000AF78600B467B807B689A687B88134045
:10218C00002B02D00123FB7301E00023FB73FB7BCC
:10219C0018461437BD4680BC704780B483B000AF7E
:1021AC0078600B467B8013467B707B78002B03D0CA
:1021BC007A887B681A6103E07B881A047B681A6151
:1021CC0000BF0C37BD4680BC704780B485B000AFF3
:1021DC0078600B467B807B68DB68FB607A88FB68E9
:1021EC0013401A04FB68D9437B880B401A437B6865
:1021FC001A6100BF1437BD4680BC704780B586B0ED
:10220C0000AF78607B68002B01D101236CE27B6806
:10221C001B6803F00103002B00F08780924B5B6876
:10222C0003F00C03042B0CD08F4B5B6803F00C03F6
:10223C00082B12D18C4B5B6803F48033B3F5803FD1
:10224C000BD1894B1B6803F40033002B6CD07B68DB
:10225C005B68002B68D1012346E27B685B68B3F5B1
:10226C00803F06D1804B1B687F4A43F48033136058
:10227C002EE07B685B68002B0CD17B4B1B687A4A89
:10228C0023F480331360784B1B68774A23F4802344
:10229C0013601DE07B685B68B3F5A02F0CD1724B0B
:1022AC001B68714A43F4802313606F4B1B686E4AA2
:1022BC0043F4803313600BE06B4B1B686A4A23F4C6
:1022CC0080331360684B1B68674A23F480231360C8
:1022DC007B685B68002B13D0FFF7B6FC386108E015
:1022EC00FFF7B2FC02463B69D31A642B01D90323D6
:1022FC00FAE15D4B1B6803F40033002BF0D014E0C3
:10230C00FFF7A2FC386108E0FFF79EFC02463B6930
:10231C00D31A642B01D90323E6E1534B1B6803F456
:10232C000033002BF0D100E000BF7B681B6803F08A
:10233C000203002B63D04C4B5B6803F00C03002BA7
:10234C000BD0494B5B6803F00C03082B1CD1464B9C
:10235C005B6803F48033002B16D1434B1B6803F0EE
:10236C000203002B05D07B681B69012B01D00123D4
:10237C00BAE13D4B1B6823F0F8027B685B69DB001C
:10238C00394913430B603AE07B681B69002B20D062
:10239C00364B01221A60FFF757FC386108E0FFF753
:1023AC0053FC02463B69D31A022B01D903239BE150
:1023BC002D4B1B6803F00203002BF0D02A4B1B683B
:1023CC0023F0F8027B685B69DB00274913430B6041
:1023DC0015E0264B00221A60FFF736FC386108E046
:1023EC00FFF732FC02463B69D31A022B01D90323B7
:1023FC007AE11D4B1B6803F00203002BF0D17B68C4
:10240C001B6803F00803002B3AD07B689B69002BF8
:10241C0019D0174B01221A60FFF716FC386108E03F
:10242C00FFF712FC02463B69D31A022B01D9032396
:10243C005AE10D4B5B6A03F00203002BF0D0012034
:10244C0000F09AFA1CE00A4B00221A60FFF7FCFB22
:10245C0038610FE0FFF7F8FB02463B69D31A022BF9
:10246C0008D9032340E100BF0010024000004242A3
:10247C00800442429E4B5B6A03F00203002BE9D1BD
:10248C007B681B6803F00403002B00F0A68000237C
:10249C00FB75974BDB6903F08053002B0DD1944BEC
:1024AC00DB69934A43F08053D361914BDB6903F0B2
:1024BC008053BB60BB680123FB758E4B1B6803F418
:1024CC008073002B18D18B4B1B688A4A43F48073A2
:1024DC001360FFF7B9FB386108E0FFF7B5FB024664
:1024EC003B69D31A642B01D90323FDE0814B1B6894
:1024FC0003F48073002BF0D07B68DB68012B06D1D2
:10250C007B4B1B6A7A4A43F0010313622DE07B6814
:10251C00DB68002B0CD1764B1B6A754A23F0010348
:10252C001362734B1B6A724A23F0040313621CE0A0
:10253C007B68DB68052B0CD16D4B1B6A6C4A43F036
:10254C00040313626A4B1B6A694A43F0010313626A
:10255C000BE0674B1B6A664A23F001031362644B62
:10256C001B6A634A23F0040313627B68DB68002B4D
:10257C0015D0FFF769FB38610AE0FFF765FB0246EF
:10258C003B69D31A41F28832934201D90323ABE061
:10259C00574B1B6A03F00203002BEED014E0FFF73D
:1025AC0053FB38610AE0FFF74FFB02463B69D31A35
:1025BC0041F28832934201D9032395E04C4B1B6ABC
:1025CC0003F00203002BEED1FB7D012B05D1484B10
:1025DC00DB69474A23F08053D3617B68DB69002BAE
:1025EC0000F08180424B5B6803F00C03082B61D038
:1025FC007B68DB69022B46D13F4B00221A60FFF748
:10260C0023FB386108E0FFF71FFB02463B69D31A36
:10261C00022B01D9032367E0354B1B6803F00073D1
:10262C00002BF0D17B681B6AB3F5803F08D1304B8F
:10263C005B6823F400327B689B682D4913434B6025
:10264C002B4B5B6823F474127B68196A7B685B6A9A
:10265C000B43274913434B60274B01221A60FFF7AA
:10266C00F3FA386108E0FFF7EFFA02463B69D31A38
:10267C00022B01D9032337E01D4B1B6803F00073B9
:10268C00002BF0D02FE01C4B00221A60FFF7DCFA75
:10269C00386108E0FFF7D8FA02463B69D31A022BDF
:1026AC0001D9032320E0124B1B6803F00073002BAD
:1026BC00F0D118E07B68DB69012B01D1012313E019
:1026CC000B4B5B68FB60FB6803F480327B681B6A16
:1026DC009A4206D1FB6803F470127B685B6A9A42DB
:1026EC0001D0012300E0002318461837BD4680BDF9
:1026FC0000100240007000406000424280B584B07F
:10270C0000AF786039607B68002B01D10123D0E0E9
:10271C006A4B1B6803F007033A689A4210D9674B5F
:10272C001B6823F0070265493B6813430B60634B3E
:10273C001B6803F007033A689A4201D00123B8E002
:10274C007B681B6803F00203002B20D07B681B689E
:10275C0003F00403002B05D0594B5B68584A43F433
:10276C00E06353607B681B6803F00803002B05D003
:10277C00534B5B68524A43F460535360504B5B6855
:10278C0023F0F0027B689B684D4913434B607B68D8
:10279C001B6803F00103002B40D07B685B68012BA6
:1027AC0007D1474B1B6803F40033002B15D10123D1
:1027BC007FE07B685B68022B07D1414B1B6803F001
:1027CC000073002B09D1012373E03D4B1B6803F010
:1027DC000203002B01D101236BE0394B5B6823F022
:1027EC0003027B685B68364913434B60FFF72CFA96
:1027FC00F8600AE0FFF728FA0246FB68D31A41F2A8
:10280C008832934201D9032353E02D4B5B6803F0CC
:10281C000C027B685B689B009A42EBD1274B1B68D0
:10282C0003F007033A689A4210D2244B1B6823F03A
:10283C00070222493B6813430B60204B1B6803F0D3
:10284C0007033A689A4201D0012332E07B681B6887
:10285C0003F00403002B08D0194B5B6823F4E062EF
:10286C007B68DB68164913434B607B681B6803F07D
:10287C000803002B09D0124B5B6823F460527B6871
:10288C001B69DB000E4913434B6000F021F8024634
:10289C000B4B5B681B0903F00F030A49CB5C22FA54
:1028AC0003F3094A1360094B1B681846FFF78AF9B2
:1028BC00002318461037BD4680BD00BF00200240E3
:1028CC0000100240E8310008580000205C00002095
:1028DC0080B487B000AF0023FB600023BB600023F3
:1028EC007B6100237B6000233B611E4B5B68FB60BC
:1028FC00FB6803F00C03042B02D0082B03D027E059
:10290C00194B3B6127E0FB689B0C03F00F03174A44
:10291C00D35C7B60FB6803F48033002B10D0114B2D
:10292C005B685B0C03F00103114AD35CBB607B68F2
:10293C000D4A02FB03F2BB68B2FBF3F37B6104E0CC
:10294C007B680C4A02FB03F37B617B693B6102E011
:10295C00054B3B6100BF3B6918461C37BD4680BC2C
:10296C00704700BF0010024000127A00F8310008D6
:10297C000832000800093D0080B485B000AF7860D3
:10298C000A4B1B680A4AA2FB03235B0A7A6802FB08
:10299C0003F3FB6000BFFB685A1EFA60002BF9D1F1
:1029AC0000BF00BF1437BD4680BC704758000020E4
:1029BC00D34D621080B582B000AF78607B68002B7D
:1029CC0001D1012341E07B6893F83D30DBB2002B51
:1029DC0006D17B68002283F83C207868FFF75AF810
:1029EC007B68022283F83D207B681A687B6804337D
:1029FC001946104600F056FA7B68012283F84620EF
:102A0C007B68012283F83E207B68012283F83F20FB
:102A1C007B68012283F840207B68012283F84120E7
:102A2C007B68012283F842207B68012283F84320D3
:102A3C007B68012283F844207B68012283F84520BF
:102A4C007B68012283F83D20002318460837BD46D9
:102A5C0080BD000080B485B000AF78607B6893F8CF
:102A6C003D30DBB2012B01D0012335E07B68022223
:102A7C0083F83D207B681B68DA687B681B6842F032
:102A8C000102DA607B681B68164A934209D07B68A6
:102A9C001B68B3F1804F04D07B681B68124A9342C9
:102AAC0011D17B681B689B6803F00703FB60FB6814
:102ABC00062B10D07B681B681A687B681B6842F079
:102ACC0001021A6007E07B681B681A687B681B6848
:102ADC0042F001021A60002318461437BD4680BC30
:102AEC00704700BF002C01400004004080B584B04A
:102AFC0000AF78607B681B68DB68FB607B681B68D9
:102B0C001B69BB60BB6803F00203002B20D0FB6881
:102B1C0003F00203002B1BD07B681B686FF00202D2
:102B2C001A617B6801221A777B681B689B6903F02A
:102B3C000303002B03D0786800F098F905E078685F
:102B4C0000F08BF9786800F09AF97B6800221A770C
:102B5C00BB6803F00403002B20D0FB6803F00403D4
:102B6C00002B1BD07B681B686FF004021A617B681A
:102B7C0002221A777B681B689B6903F44073002B55
:102B8C0003D0786800F072F905E0786800F065F918
:102B9C00786800F074F97B6800221A77BB6803F040
:102BAC000803002B20D0FB6803F00803002B1BD07C
:102BBC007B681B686FF008021A617B6804221A7725
:102BCC007B681B68DB6903F00303002B03D0786878
:102BDC0000F04CF905E0786800F03FF9786800F0F7
:102BEC004EF97B6800221A77BB6803F01003002BA8
:102BFC0020D0FB6803F01003002B1BD07B681B68F4
:102C0C006FF010021A617B6808221A777B681B68C8
:102C1C00DB6903F44073002B03D0786800F026F9CD
:102C2C0005E0786800F019F9786800F028F97B68FD
:102C3C0000221A77BB6803F00103002B0CD0FB6851
:102C4C0003F00103002B07D07B681B686FF00102B7
:102C5C001A617868FEF71CFEBB6803F08003002B3A
:102C6C000CD0FB6803F08003002B07D07B681B683B
:102C7C006FF080021A61786800F06FFABB6803F09D
:102C8C004003002B0CD0FB6803F04003002B07D053
:102C9C007B681B686FF040021A61786800F0F8F8E6
:102CAC00BB6803F02003002B0CD0FB6803F020035F
:102CBC00002B07D07B681B686FF020021A617868C4
:102CCC0000F042FA00BF1037BD4680BD80B584B01D
:102CDC0000AF786039600023FB737B6893F83C305D
:102CEC00012B01D10223B4E07B68012283F83C2044
:102CFC007B68022283F83D207B681B689B68BB6065
:102D0C00BB6823F07703BB60BB6823F47F43BB60D5
:102D1C007B681B68BA689A603B681B68B3F5005FF8
:102D2C003ED0B3F5005F00F28780B3F5805F00F012
:102D3C008680B3F5805F7FD8702B1AD0702B7BD830
:102D4C00602B50D0602B77D8502B3CD0502B73D8A5
:102D5C00402B58D0402B6FD8302B64D0302B6BD8F5
:102D6C00202B60D0202B67D8002B5CD0102B5AD096
:102D7C0062E07B6818683B6899683B685A683B68F6
:102D8C00DB6800F06AF97B681B689B68BB60BB68FA
:102D9C0043F07703BB607B681B68BA689A604FE0AE
:102DAC007B6818683B6899683B685A683B68DB68C5
:102DBC0000F053F97B681B689A687B681B6842F4C7
:102DCC0080429A603CE07B6818683B6859683B68B5
:102DDC00DB681A4600F0CAF87B681B68502118465D
:102DEC0000F021F92CE07B6818683B6859683B6857
:102DFC00DB681A4600F0E8F87B681B68602118460F
:102E0C0000F011F91CE07B6818683B6859683B6856
:102E1C00DB681A4600F0AAF87B681B68402118464C
:102E2C0000F001F90CE07B681A683B681B681946D6
:102E3C00104600F0F8F803E00123FB7300E000BF3C
:102E4C007B68012283F83D207B68002283F83C20BC
:102E5C00FB7B18461037BD4680BD80B483B000AFF5
:102E6C00786000BF0C37BD4680BC704780B483B01F
:102E7C0000AF786000BF0C37BD4680BC704780B493
:102E8C0083B000AF786000BF0C37BD4680BC704784
:102E9C0080B483B000AF786000BF0C37BD4680BCF7
:102EAC007047000080B485B000AF786039607B68F3
:102EBC001B68FB607B682B4A934207D07B68B3F19D
:102ECC00804F03D07B68284A934208D1FB6823F0DB
:102EDC007003FB603B685B68FA681343FB607B68BC
:102EEC00204A934207D07B68B3F1804F03D07B68B4
:102EFC001D4A934208D1FB6823F44073FB603B6886
:102F0C00DB68FA681343FB60FB6823F080023B68C4
:102F1C005B691343FB607B68FA681A603B689A68CC
:102F2C007B68DA623B681A687B689A627B680D4A38
:102F3C00934203D13B681A697B681A637B68012250
:102F4C005A617B681B6903F00103002B05D07B6879
:102F5C001B6923F001027B681A6100BF1437BD4660
:102F6C0080BC7047002C01400004004080B487B046
:102F7C0000AFF860B9607A60FB681B6A7B61FB6824
:102F8C001B6A23F00102FB681A62FB689B693B61B8
:102F9C003B6923F0F0033B617B681B013A691343E7
:102FAC003B617B6923F00A037B617A69BB6813433D
:102FBC007B61FB683A699A61FB687A691A6200BFA7
:102FCC001C37BD4680BC704780B487B000AFF8603A
:102FDC00B9607A60FB681B6A7B61FB681B6A23F033
:102FEC001002FB681A62FB689B693B613B6923F426
:102FFC0070433B617B681B033A6913433B617B69FC
:10300C0023F0A0037B61BB681B017A6913437B61CE
:10301C00FB683A699A61FB687A691A6200BF1C37CF
:10302C00BD4680BC704780B485B000AF7860396015
:10303C007B689B68FB60FB6823F07003FB603A685D
:10304C00FB68134343F00703FB607B68FA689A60E4
:10305C0000BF1437BD4680BC704780B487B000AF4A
:10306C00F860B9607A603B60FB689B687B617B6948
:10307C0023F47F437B613B681A027B681A43BB686D
:10308C0013437A6913437B61FB687A699A6000BFCA
:10309C001C37BD4680BC704780B485B000AF7860EB
:1030AC0039607B6893F83C30012B01D1022341E05D
:1030BC007B68012283F83C207B68022283F83D2048
:1030CC007B681B685B68FB607B681B689B68BB60EC
:1030DC00FB6823F07003FB603B681B68FA681343C2
:1030EC00FB607B681B68FA685A607B681B68144A33
:1030FC00934209D07B681B68B3F1804F04D07B6886
:10310C001B68104A93420CD1BB6823F08003BB6050
:10311C003B685B68BA681343BB607B681B68BA6822
:10312C009A607B68012283F83D207B68002283F83B
:10313C003C20002318461437BD4680BC704700BFA6
:10314C00002C01400004004080B483B000AF7860D4
:10315C0000BF0C37BD4680BC704780B483B000AF55
:10316C00786000BF0C37BD4680BC704770B5002638
:10317C000C4D0D4C641BA410A64209D100F022F892
:10318C0000260A4D0A4C641BA410A64205D170BD42
:10319C0055F8043B98470136EEE755F8043B984741
:1031AC000136F2E70C3200080C3200080C32000831
:1031BC001032000803460244934200D1704703F8D2
:1031CC00011BF9E7F8B500BFF8BC08BC9E46704778
:0C31DC00F8B500BFF8BC08BC9E46704768
:1031E80000000000000000000102030406070809AF
:1031F80002030405060708090A0B0C0D0E0F101030
:0432080001020000BF
:04320C003101000884
:043210000D010008A4
:1032140001000000010000000100000001000000A6
:103224000100000001000000010000000100000096
:103234000100000001000000010000000100000086
:10324400C8000000C8000000C8000000B80B00005F
:1032540088130000D0070000B80B0000881300009A
:10326400D00700000A00000000127A0010000000DD
:043274000100000055
:0400000508001B597B
:00000001FF
