:020000040800F2
:1000000000280020411B0008D11A0008D71A000858
:10001000DD1A0008E31A0008E91A000800000000D1
:10002000000000000000000000000000EF1A0008BF
:10003000FB1A000800000000071B0008131B000843
:10004000891B0008891B0008891B0008891B000800
:10005000891B0008891B0008891B0008891B0008F0
:10006000891B0008891B0008891B0008891B0008E0
:10007000891B0008891B0008891B0008891B0008D0
:10008000891B0008891B0008891B0008891B0008C0
:10009000891B0008891B0008891B0008891B0008B0
:1000A000891B0008891B0008891B0008891B0008A0
:1000B000211B0008891B000800000000891B0008A4
:1000C000891B00080000000000000000891B0008D8
:1000D00000000000891B0008891B000800000000C8
:1000E000891B0008891B0008891B0008000000000C
:1000F0000000000000000000000000000000000000
:0C01000000000000000000005FF808F1A3
:10010C0010B5054C237833B9044B13B10448AFF345
:10011C0000800123237010BD580000200000000057
:10012C00B831000808B5034B1BB103490348AFF3C2
:10013C00008008BD000000005C000020B831000801
:10014C0080B582B000AF786000F0BAFD0346012B99
:10015C000BD17B681B685A1C7B681A607B681B6818
:10016C00622B02DD7B6801221A6000BF0837BD4696
:10017C0080BD80B582B000AF7860396000F0B2FD10
:10018C000346012B07D17B681B684FF47A7202FB84
:10019C0003F23B681A6000BF0837BD4680BD000003
:1001AC0080B582B000AF78607B68092B00F280814B
:1001BC0001A252F823F000BFED010008350200083F
:1001CC007D020008C50200080D0300085503000855
:1001DC009D030008E50300082D04000875040008C1
:1001EC0000220221B44801F0CCFF00220421B248C5
:1001FC0001F0C7FF00220821AF4801F0C2FF002226
:10020C001021AD4801F0BDFF00222021AA4801F0C9
:10021C00B8FF00224021A84801F0B3FF0122802141
:10022C00A54801F0AEFF43E101220221A24801F0F2
:10023C00A8FF00220421A04801F0A3FF00220821FE
:10024C009D4801F09EFF012210219B4801F099FF6F
:10025C0001222021984801F094FF01224021964868
:10026C0001F08FFF01228021934801F08AFF1FE1EA
:10027C0000220221904801F084FF002204218E48C4
:10028C0001F07FFF012208218B4801F07AFF002248
:10029C001021894801F075FF00222021864801F0C9
:1002AC0070FF01224021844801F06BFF0022802165
:1002BC00814801F066FFFBE0002202217E4801F03C
:1002CC0060FF002204217C4801F05BFF0022082122
:1002DC00794801F056FF00221021774801F051FFB8
:1002EC0001222021744801F04CFF01224021724868
:1002FC0001F047FF002280216F4801F042FFD7E058
:10030C00012202216C4801F03CFF002204216A48C2
:10031C0001F037FF00220821674801F032FF01226B
:10032C001021654801F02DFF01222021624801F0C7
:10033C0028FF00224021604801F023FF0022802189
:10034C005D4801F01EFFB3E0002202215A4801F083
:10035C0018FF01220421584801F013FF0022082144
:10036C00554801F00EFF00221021534801F009FFFF
:10037C0001222021504801F004FF002240214E4868
:10038C0001F0FFFE002280214B4801F0FAFE8FE0C5
:10039C0000220221484801F0F4FE012204214648C3
:1003AC0001F0EFFE00220821434801F0EAFE002292
:1003BC001021414801F0E5FE002220213E4801F0C9
:1003CC00E0FE002240213C4801F0DBFE00228021AF
:1003DC00394801F0D6FE6BE000220221364801F0CC
:1003EC00D0FE00220421344801F0CBFE002208216B
:1003FC00314801F0C6FE012210212F4801F0C1FE48
:10040C00012220212C4801F0BCFE012240212A4867
:10041C0001F0B7FE01228021274801F0B2FE47E02F
:10042C0000220221244801F0ACFE002204212248C3
:10043C0001F0A7FE002208211F4801F0A2FE0022B5
:10044C0010211D4801F09DFE002220211A4801F0C8
:10045C0098FE00224021184801F093FE00228021D2
:10046C00154801F08EFE23E000220221124801F013
:10047C0088FE00220421104801F083FE002208218E
:10048C000D4801F07EFE002210210B4801F079FE90
:10049C0001222021084801F074FE00224021064868
:1004AC0001F06FFE00228021034801F06AFE00BFBC
:1004BC0000BF0837BD4680BD000C014080B582B03E
:1004CC0000AF78607B68092B00F2C98101A252F859
:1004DC0023F000BF090500085F050008B5050008FA
:1004EC000B06000861060008B70600080D07000897
:1004FC0063070008B90700081508000800224FF42C
:10050C008071C04801F03DFE00224FF40071BD48DF
:10051C0001F037FE00224FF48061BA4801F031FE41
:10052C0000224FF40061B74801F02BFE00224FF47B
:10053C008051B44801F025FE00224FF40051B1481F
:10054C0001F01FFE01224FF48041AE4801F019FE6C
:10055C0085E101224FF48071AA4801F012FE0022BD
:10056C004FF40071A74801F00CFE00224FF480619B
:10057C00A44801F006FE01224FF40061A14801F0ED
:10058C0000FE01224FF480519E4801F0FAFD012239
:10059C004FF400519B4801F0F4FD01224FF48041CF
:1005AC00984801F0EEFD5AE100224FF48071954815
:1005BC0001F0E7FD00224FF40071924801F0E1FDDB
:1005CC0001224FF480618F4801F0DBFD00224FF4D3
:1005DC0000618C4801F0D5FD00224FF48051894810
:1005EC0001F0CFFD01224FF40051864801F0C9FD06
:1005FC0000224FF48041834801F0C3FD2FE100221B
:10060C004FF480717F4801F0BCFD00224FF4007163
:10061C007C4801F0B6FD00224FF48061794801F06E
:10062C00B0FD00224FF40061764801F0AAFD0122D2
:10063C004FF48051734801F0A4FD01224FF4005196
:10064C00704801F09EFD00224FF480416D4801F08E
:10065C0098FD04E101224FF480716A4801F091FD8C
:10066C0000224FF40071674801F08BFD00224FF41B
:10067C008061644801F085FD01224FF400616148FE
:10068C0001F07FFD01224FF480515E4801F079FDAD
:10069C0000224FF400515B4801F073FD00224FF42F
:1006AC008041584801F06DFDD9E000224FF4807173
:1006BC00544801F066FD01224FF40071514801F0DD
:1006CC0060FD00224FF480614E4801F05AFD00227B
:1006DC004FF400614B4801F054FD01224FF480515E
:1006EC00484801F04EFD00224FF40051454801F0FE
:1006FC0048FD00224FF48041424801F042FDAEE03B
:10070C0000224FF480713F4801F03BFD01224FF471
:10071C0000713C4801F035FD00224FF480613948EE
:10072C0001F02FFD00224FF40061364801F029FD45
:10073C0000224FF48051334801F023FD00224FF486
:10074C000051304801F01DFD00224FF480412D482E
:10075C0001F017FD83E000224FF48071294801F06D
:10076C0010FD00224FF40071264801F00AFD002212
:10077C004FF48061234801F004FD01224FF4006125
:10078C00204801F0FEFC01224FF480511D4801F07D
:10079C00F8FC01224FF400511A4801F0F2FC01223E
:1007AC004FF48041174801F0ECFC58E000224FF464
:1007BC008071144801F0E5FC00224FF400711148DF
:1007CC0001F0DFFC00224FF480610E4801F0D9FCEF
:1007DC0000224FF400610B4801F0D3FC00224FF4CF
:1007EC008051084801F0CDFC00224FF4005105481F
:1007FC0001F0C7FC00224FF48041024801F0C1FC1B
:10080C002DE000BF000C014000224FF4807116480F
:10081C0001F0B7FC00224FF40071134801F0B1FC59
:10082C0000224FF48061104801F0ABFC00224FF421
:10083C0000610D4801F0A5FC01224FF480510A48DB
:10084C0001F09FFC00224FF40051074801F099FC85
:10085C0000224FF48041044801F093FC00BF00BF1C
:10086C000837BD4680BD00BF000C014080B582B08A
:10087C0000AF78607B68092B00F2BC8101A252F8B2
:10088C0023F000BFB90800080D0900086109000831
:10089C00B5090008090A00085D0A0008B10A000839
:1008AC00050B0008590B0008AD0B000800224FF493
:1008BC008061D24801F065FC00224FF40061CF4802
:1008CC0001F05FFC00224FF48051CC4801F059FC40
:1008DC0000224FF40051C94801F053FC00224FF4A0
:1008EC008041C64801F04DFC00224FF40041C34842
:1008FC0001F047FC01220121C14801F042FC79E1E1
:10090C0001224FF48061BD4801F03BFC00224FF402
:10091C000061BA4801F035FC00224FF48051B74811
:10092C0001F02FFC01224FF40051B44801F029FCD6
:10093C0001224FF48041B14801F023FC01224FF415
:10094C000041AE4801F01DFC01220121AC4801F030
:10095C0018FC4FE100224FF48061A84801F011FC13
:10096C0000224FF40061A54801F00BFC01224FF46A
:10097C008051A24801F005FC00224FF400519F4821
:10098C0001F0FFFB00224FF480419C4801F0F9FB81
:10099C0001224FF40041994801F0F3FB00220121A0
:1009AC00974801F0EEFB25E100224FF4806193485B
:1009BC0001F0E7FB00224FF40061904801F0E1FBED
:1009CC0000224FF480518D4801F0DBFB00224FF4E4
:1009DC0000518A4801F0D5FB01224FF48041874831
:1009EC0001F0CFFB01224FF40041844801F0C9FB18
:1009FC0000220121824801F0C4FBFBE001224FF4EC
:100A0C0080617E4801F0BDFB00224FF400617B4801
:100A1C0001F0B7FB00224FF48051784801F0B1FB94
:100A2C0001224FF40051754801F0ABFB01224FF449
:100A3C008041724801F0A5FB00224FF400416F4841
:100A4C0001F09FFB002201216D4801F09AFBD1E0DF
:100A5C0000224FF48061694801F093FB01224FF4AE
:100A6C000061664801F08DFB00224FF48051634811
:100A7C0001F087FB00224FF40051604801F081FB2C
:100A8C0001224FF480415D4801F07BFB00224FF4C2
:100A9C0000415A4801F075FB00220121584801F031
:100AAC0070FBA7E000224FF48061544801F069FB11
:100ABC0001224FF40061514801F063FB00224FF416
:100ACC0080514E4801F05DFB00224FF400514B4821
:100ADC0001F057FB00224FF48041484801F051FBD4
:100AEC0000224FF40041454801F04BFB002201214C
:100AFC00434801F046FB7DE000224FF480613F4803
:100B0C0001F03FFB00224FF400613C4801F039FB3F
:100B1C0000224FF48051394801F033FB01224FF48D
:100B2C000051364801F02DFB01224FF4804133482F
:100B3C0001F027FB01224FF40041304801F021FB6A
:100B4C00012201212E4801F01CFB53E000224FF43E
:100B5C0080612A4801F015FB00224FF40061274800
:100B6C0001F00FFB00224FF48051244801F009FBE7
:100B7C0000224FF40051214801F003FB00224FF4F6
:100B8C0080411E4801F0FDFA00224FF400411B4841
:100B9C0001F0F7FA00220121194801F0F2FA29E0DC
:100BAC0000224FF48061154801F0EBFA00224FF45B
:100BBC000061124801F0E5FA00224FF480510F4811
:100BCC0001F0DFFA00224FF400510C4801F0D9FA81
:100BDC0001224FF48041094801F0D3FA00224FF46E
:100BEC000041064801F0CDFA00220121044801F031
:100BFC00C8FA00BF00BF0837BD4680BD00080140E1
:100C0C00000C014080B582B000AF78607B68002B8F
:100C1C0003D07B68012B17D032E0002201211A4847
:100C2C0001F0AFFA01224FF40041184801F0A9FA83
:100C3C00174B1B68174A82FB03125211DB17D31A8E
:100C4C001846FFF713FE1BE0012201210E4801F0AC
:100C5C0098FA00224FF400410C4801F092FA0C4B28
:100C6C001A680D4B83FB02139910D317C91A0B4644
:100C7C009B000B445B00D11A0846FFF7F7FD00BF41
:100C8C0000BF0837BD4680BD00080140000C014084
:100C9C008C0000201F85EB516766666680B400AF40
:100CAC00064B1B68012B04D1044B00221A60012354
:100CBC0000E000231846BD4680BC7047740000203D
:100CCC0080B400AF064B1B68012B04D1044B0022EF
:100CDC001A60012300E000231846BD4680BC704713
:100CEC007800002080B400AF064B1B68012B04D1A8
:100CFC00044B00221A60012300E000231846BD4675
:100D0C0080BC70477C00002080B400AF034B0122F4
:100D1C001A6000BFBD4680BC704700BF7400002045
:100D2C0080B400AF034B01221A6000BFBD4680BCEB
:100D3C00704700BF7800002080B400AF034B012245
:100D4C001A6000BFBD4680BC704700BF7C0000200D
:100D5C0080B500AF5A4B1B685A4A13605A4B1B683C
:100D6C00574A13600221594801F0F4F903461A4618
:100D7C00554B1A60534B1A68514B1B689A4225D13C
:100D8C004F4B1A68504B1B689A421FD1504B1A6834
:100D9C004D4B1B689A420DD04B4B1B684C4A136051
:100DAC00494B1B68002B11D1FFF7AEFF494BC822F2
:100DBC001A600BE0474B1B68013B464A1360454BDE
:100DCC001B68002B02D1424B01221A60424B1B685C
:100DDC00424A1360424B1B683F4A136004213B4854
:100DEC0001F0B8F903461A463D4B1A603B4B1A68A2
:100DFC00394B1B689A4225D1374B1A68384B1B6804
:100E0C009A421FD1374B1A68354B1B689A420DD04A
:100E1C00334B1B68334A1360314B1B68002B11D1C9
:100E2C00FFF77EFF304BC8221A600BE02E4B1B687D
:100E3C00013B2D4A13602C4B1B68002B02D1294B14
:100E4C0001221A60294B1B68294A1360294B1B6825
:100E5C00264A136008211D4801F07CF903461A4606
:100E6C00244B1A60224B1A68204B1B689A4225D1DE
:100E7C001E4B1A681F4B1B689A421FD11E4B1A68D7
:100E8C001C4B1B689A420DD01A4B1B681A4A1360F4
:100E9C00184B1B68002B11D1FFF74EFF174BC822C4
:100EAC001A600BE0154B1B68013B144A1360134B83
:100EBC001B68002B02D1104B01221A6000BF80BDB1
:100ECC000400002000000020080000200008014061
:100EDC000C00002030000020140000201000002026
:100EEC00180000201C0000203400002024000020EA
:100EFC0020000020280000202C00002038000020BA
:100F0C0080B500AFB24B1B68B24A1360B24B1B6882
:100F1C00B24A1360B24B1B68B24A1360B24B1B68E7
:100F2C00013B032B00F2188101A252F823F000BF01
:100F3C004D0F0008950F000831100008CB10000869
:100F4C0001224021A94801F01CF901222021A748C7
:100F5C0001F017F901221021A44801F012F9A24B5B
:100F6C0002221A604FF47A7000F098FCFA2000F01C
:100F7C00E3FC994B1B689E4A82FB03129211DB1710
:100F8C00D31A9C4A1360EEE000224021974801F0EE
:100F9C00F8F801222021954801F0F3F801221021E4
:100FAC00924801F0EEF8944B1B68012B23D1914B26
:100FBC001B68013B8F4A13604FF47A7000F06EFC93
:100FCC008C4B1B688D4A82FB03129210DB17D31AD1
:100FDC001846FFF7E5F8874B1A68884B83FB02131A
:100FEC009910D317C91A0B469B000B445B00D11AFE
:100FFC000846FFF763FA7F4B1B68002B00F3AE80AB
:10100C00794B03221A604FF47A7000F047FC704B56
:10101C001B68774A82FB03129211DB17D31A784AAA
:10102C0013609BE001224021704801F0AAF80122D4
:10103C0020216E4801F0A5F8002210216B4801F028
:10104C00A0F86D4B1B68012B23D16D4B1B68013B2A
:10105C006B4A13604FF47A7000F020FC684B1B68ED
:10106C00664A82FB03129210DB17D31A1846FFF75D
:10107C0097F8634B1A68614B83FB02139910D317D3
:10108C00C91A0B469B000B445B00D11A0846FFF7AC
:10109C0015FA5B4B1B68002B62DC534B04221A6065
:1010AC004FF47A7000F0FAFB4D4B1B68504A82FBF0
:1010BC0003129211DB17D31A524A136050E001222B
:1010CC0040214A4801F05DF800222021474801F0F8
:1010DC0058F801221021454801F053F8464B1B6883
:1010EC00012B23D1474B1B68013B464A13604FF43D
:1010FC007A7000F0D3FB434B1B68404A82FB03120F
:10110C009210DB17D31A1846FFF74AF83D4B1A68B2
:10111C003A4B83FB02139910D317C91A0B469B0049
:10112C000B445B00D11A0846FFF7C8F9354B1B6816
:10113C00002B17DC2C4B02221A604FF47A7000F053
:10114C00ADFB254B1B682A4A82FB03129211DB175D
:10115C00D31A284A136005E000BF04E000BF02E088
:10116C0000BF00E000BF284B1B68013B032B00F2C3
:10117C00EB8001A252F823F095110008ED12000843
:10118C001D1200088512000801224FF40071174847
:10119C0000F0F7FF01224FF48071144800F0F1FFCA
:1011AC0001228021114800F0ECFF174B03221A603A
:1011BC004FF47A7000F08CFB064B1B680C4A82FBD8
:1011CC0003129211DB17D31A104A1360C3E000BF4D
:1011DC003C000020C000002040000020B80000208F
:1011EC0044000020D00000208400002000080140B2
:1011FC00D34D6210BC000020940000206766666628
:10120C00C8000020CC00002088000020B000002086
:10121C0001224FF40071514800F0B3FF01224FF44A
:10122C0080714E4800F0ADFF002280214B4800F049
:10123C00A8FF4B4B1B68012B08D14A4B1B68013B89
:10124C00484A13604FF47A7000F042FB454B1B6820
:10125C00002B7BDC444B04221A60444B1B68444A31
:10126C0082FB03129211DB17D31A424A13604FF41C
:10127C007A7000F02DFB69E001224FF400713748C1
:10128C0000F07FFF00224FF48071344800F079FFAA
:10129C0001228021314800F074FF314B1B68012B77
:1012AC0008D1344B1B68013B324A13604FF47A70FF
:1012BC0000F00EFB2F4B1B68002B49DC2A4B022243
:1012CC001A602D4B1B682A4A82FB03129211DB1702
:1012DC00D31A2A4A13604FF47A7000F0F9FA37E007
:1012EC0000224FF400711D4800F04BFF01224FF417
:1012FC0080711A4800F045FF01228021174800F048
:10130C0040FF174B1B68012B08D11C4B1B68013B82
:10131C001A4A13604FF47A7000F0DAFA174B1B6814
:10132C00002B17DC104B03221A60154B1B68104A5C
:10133C0082FB03129211DB17D31A0A4A13604FF483
:10134C007A7000F0C5FA05E000BF04E000BF02E0CF
:10135C0000BF00E000BF00BF80BD00BF000801401F
:10136C009C000020B000002088000020D00000204D
:10137C00D34D6210B4000020B8000020C40000203F
:10138C00C000002080B500AFA64B1B68012B13D109
:10139C00A54B1B681846FFF735FCA34B1B680133A4
:1013AC00A14A1360A04B1B68012B02DD9E4B00224F
:1013BC001A60FA2000F0C0FAFFF794FC0346012BE8
:1013CC0008D19A4B01221A60994B01221A60994B51
:1013DC0001221A60954B1B68013B0D2B00F2168104
:1013EC0001A252F823F000BF2D14000819160008B2
:1013FC001916000819160008191600081916000805
:10140C0019160008191600081916000819160008F4
:10141C00191600085F140008FB1400089315000847
:10142C00FFF76EFDFFF73AFC0346012B40F0F0800E
:10143C007E4B0C221A60804B1B68804A82FB031285
:10144C009211DB17D31A7E4A1360FA2000F05AFA75
:10145C00DEE07C4B1B68012B21D140217A4800F047
:10146C00A8FEFA2000F04EFA754B1B68774A82FBF7
:10147C0003129210DB17D31A1846FEF791FE704B2D
:10148C001A68724B83FB02139910D317C91A0B46B7
:10149C009B000B445B00D11A0846FFF70FF80122A2
:1014AC002021694800F06DFE01221021664800F0F1
:1014BC0068FE6348FEF744FE5F496148FEF759FE3B
:1014CC00FFF7ECFB0346012B40F0A480574B0D2299
:1014DC001A605F4B1B68594A82FB03129211DB178F
:1014EC00D31A5C4A1360FA2000F00CFA92E0554BC8
:1014FC001B68012B21D11021534800F05AFEFA2011
:10150C0000F000FA534B1B68504A82FB03129210F6
:10151C00DB17D31A1846FEF743FE4E4B1A684B4B9B
:10152C0083FB02139910D317C91A0B469B000B446B
:10153C005B00D11A0846FEF7C1FF01222021424868
:10154C0000F01FFE012240213F4800F01AFE4148E6
:10155C00FEF7F6FD3E48FEF70CFEFFF79FFB034639
:10156C00012B59D1314B0E221A603B4B1B68334A6D
:10157C0082FB03129211DB17D31A384A1360FA203C
:10158C0000F0C0F948E02F4B1B68012B21D1202122
:10159C002D4800F00EFEFA2000F0B4F92F4B1B681A
:1015AC002A4A82FB03129210DB17D31A1846FEF755
:1015BC00F7FD2A4B1A68254B83FB02139910D3179E
:1015CC00C91A0B469B000B445B00D11A0846FEF768
:1015DC0075FF012240211C4800F0D3FD012210218F
:1015EC00194800F0CEFD1D48FEF7AAFD1A491B480C
:1015FC00FEF7BFFDFFF752FB0346012B0ED10B4B41
:10160C0001221A60FA2000F07DF907E000BF06E025
:10161C0000BF04E000BF02E000BF00E000BF00BF5D
:10162C0080BD00BFAC000020800000208C0000209A
:10163C00840000208800002040000020D34D621060
:10164C00D8000020A40000200008014067666666F0
:10165C003C000020D400002044000020DC000020CE
:10166C0080B500AF00F08CFA00F01CF800F0A2F886
:10167C0000F054F8074801F0E1F9074B01221A6019
:10168C00064B01221A60064B01221A60FFF77AFE04
:10169C00FCE700BFE0000020840000208800002050
:1016AC008C00002080B590B000AF07F11803282201
:1016BC000021184601F072FD3B1D00221A605A6091
:1016CC009A60DA601A610223BB610123BB621023AA
:1016DC00FB6200237B6307F11803184600F082FDC0
:1016EC000346002B01D000F0D3F80F237B600023BE
:1016FC00BB600023FB6000233B6100237B613B1D2F
:10170C000021184600F0EEFF0346002B01D000F03C
:10171C00BFF800BF4037BD4680BD000080B586B025
:10172C0000AF07F1080300221A605A609A60DA6071
:10173C003B4600221A605A601D4B4FF080421A60E3
:10174C001B4B41F63F725A60194B00229A60184BA2
:10175C000922DA60164B00221A61154B00229A619D
:10176C00134801F01BF90346002B01D000F090F850
:10177C004FF48053BB6007F1080319460C4801F085
:10178C0099FA0346002B01D000F082F800233B604D
:10179C0000237B603B461946054801F071FC03466B
:1017AC00002B01D000F074F800BF1837BD4680BD87
:1017BC00E000002080B586B000AF07F108030022DE
:1017CC001A605A609A60DA60284B9B69274A43F08A
:1017DC0004039361254B9B6903F004037B607B68D6
:1017EC00224B9B69214A43F0080393611F4B9B6971
:1017FC0003F008033B603B6800224FF6F1711C4874
:10180C0000F0BFFC00224FF6FF711A4800F0B9FC43
:10181C004FF6F173BB600123FB6000233B61022395
:10182C007B6107F108031946114800F019FB0E23E0
:10183C00BB600023FB6001233B6107F108031946E1
:10184C000B4800F00DFB4FF6FF73BB600123FB60F0
:10185C0000233B6102237B6107F10803194605480D
:10186C0000F0FEFA00BF1837BD4680BD00100240E4
:10187C0000080140000C014080B582B000AF7860D8
:10188C0000F074F8FFF764FA00BF0837BD4680BD5E
:10189C0080B400AF72B600BFFEE7000080B483B026
:1018AC0000AF7860074B1B687A6892FBF3F3064A2B
:1018BC001360064B00221A6000BF0C37BD4680BC7B
:1018CC00704700BF480000209000002094000020CA
:1018DC0080B483B000AF7860074B1B687A6892FBCA
:1018EC00F3F3064A1360064B00221A6000BF0C3754
:1018FC00BD4680BC704700BF480000209800002007
:10190C009C00002080B483B000AF7860074B1B684C
:10191C007A6892FBF3F3064A1360064B00221A60B6
:10192C0000BF0C37BD4680BC704700BF480000208C
:10193C00A0000020A400002080B483B000AF786029
:10194C00074B1B687A6892FBF3F3064A1360064B4D
:10195C0000221A6000BF0C37BD4680BC704700BF28
:10196C0048000020A8000020AC00002080B400AF8C
:10197C00214B1B68002B0BDD1F4B1B68013B1E4AC8
:10198C0013601D4B1B68002B02DC1C4B01221A60E0
:10199C001B4B1B68002B0BDD194B1B68013B184ABA
:1019AC001360174B1B68002B02DC164B01221A60CC
:1019BC00154B1B68002B0BDD134B1B68013B124AAC
:1019CC001360114B1B68002B02DC104B01221A60B8
:1019DC000F4B1B68002B0BDD0D4B1B68013B0C4A9E
:1019EC0013600B4B1B68002B02DC0A4B01221A60A4
:1019FC0000BFBD4680BC70479000002094000020C2
:101A0C00980000209C000020A0000020A4000020D2
:101A1C00A8000020AC00002080B485B000AF154BAE
:101A2C009B69144A43F001039361124B9B6903F0C9
:101A3C000103BB60BB680F4BDB690E4A43F080535C
:101A4C00D3610C4BDB6903F080537B607B680A4BE2
:101A5C005B68FB60FB6823F0E063FB60FB6843F0B2
:101A6C008063FB60044AFB68536000BF1437BD46BB
:101A7C0080BC7047001002400000014080B584B06B
:101A8C0000AF78607B681B68B3F1804F13D10C4BAF
:101A9C00DB690B4A43F00103D361094BDB6903F0AB
:101AAC000103FB60FB68002200211C2000F0A1F95F
:101ABC001C2000F0BAF900BF1037BD4680BD00BF36
:101ACC000010024080B400AFFEE780B400AFFEE728
:101ADC0080B400AFFEE780B400AFFEE780B400AF87
:101AEC00FEE780B400AF00BFBD4680BC704780B439
:101AFC0000AF00BFBD4680BC704780B400AF00BFD4
:101B0C00BD4680BC704780B500AF00F07FF800BFC9
:101B1C0080BD000080B500AF024800F0DBFF00BFC5
:101B2C0080BD00BFE000002080B400AF00BFBD4608
:101B3C0080BC7047FFF7F8FF0B480C490C4A002398
:101B4C0002E0D458C4500433C4188C42F9D3094A67
:101B5C00094C002301E013600432A242FBD301F0D4
:101B6C00F9FAFFF77DFD70470000002058000020B7
:101B7C00FC310008580000202C010020FEE700007A
:101B8C0080B500AF084B1B68074A43F01003136085
:101B9C00032000F023F90F2000F008F8FFF73CFFBA
:101BAC000023184680BD00BF0020024080B582B0E3
:101BBC0000AF7860124B1A68124B1B7819464FF421
:101BCC007A73B3FBF1F3B2FBF3F3184600F03BF975
:101BDC000346002B01D001230EE07B680F2B0AD8A3
:101BEC00002279684FF0FF3000F003F9064A7B6859
:101BFC001360002300E0012318460837BD4680BD62
:101C0C004C000020540000205000002080B400AF95
:101C1C00054B1B781A46054B1B681344034A13608B
:101C2C0000BFBD4680BC7047540000202801002036
:101C3C0080B400AF024B1B681846BD4680BC704791
:101C4C002801002080B485B000AF78607B6803F079
:101C5C000703FB600C4BDB68BB60BA684FF6FF03F5
:101C6C001340BB60FB681A02BB68134343F0BF63AD
:101C7C0043F40033BB60044ABB68D36000BF143725
:101C8C00BD4680BC704700BF00ED00E080B400AFE3
:101C9C00044BDB681B0A03F007031846BD4680BCE7
:101CAC00704700BF00ED00E080B483B000AF034686
:101CBC00FB7197F90730002B0BDBFB7903F01F024C
:101CCC00064997F907305B09012000FA02F241F846
:101CDC00232000BF0C37BD4680BC704700E100E0FC
:101CEC0080B483B000AF03463960FB7197F90730BD
:101CFC00002B0ADB3B68DAB20C4997F9073012016A
:101D0C00D2B20B4483F800230AE03B68DAB20849EC
:101D1C00FB7903F00F03043B1201D2B20B441A7689
:101D2C0000BF0C37BD4680BC704700BF00E100E02F
:101D3C0000ED00E080B489B000AFF860B9607A6063
:101D4C00FB6803F00703FB61FB69C3F10703042B7A
:101D5C0028BF0423BB61FB690433062B02D9FB6942
:101D6C00033B00E000237B614FF0FF32BB6902FABA
:101D7C0003F3DA43BB681A407B699A404FF0FF319A
:101D8C007B6901FA03F3D9437B680B401343184674
:101D9C002437BD4680BC704780B582B000AF7860F8
:101DAC007B68013BB3F1807F01D301230FE00A4A2A
:101DBC007B68013B53600F214FF0FF30FFF790FF22
:101DCC00054B00229A60044B07221A600023184628
:101DDC000837BD4680BD00BF10E000E080B582B082
:101DEC0000AF78607868FFF72DFF00BF0837BD465D
:101DFC0080BD80B586B000AF0346B9607A60FB73D6
:101E0C0000237B61FFF742FF78617A68B9687869D3
:101E1C00FFF790FF024697F90F3011461846FFF76F
:101E2C005FFF00BF1837BD4680BD80B582B000AFE4
:101E3C000346FB7197F907301846FFF735FF00BFD3
:101E4C000837BD4680BD80B582B000AF7860786839
:101E5C00FFF7A2FF034618460837BD4680BD0000B9
:101E6C0080B48BB000AF7860396000237B620023B4
:101E7C003B6248E101227B6A02FA03F3FB613B6897
:101E8C001B68FA691340BB61BA69FB699A4240F05E
:101E9C0037813B685B68A34A93425ED0A14A934268
:101EAC0075D8A14A934258D09F4A93426FD89F4A03
:101EBC00934252D09D4A934269D89D4A93424CD04A
:101ECC009B4A934263D89B4A934246D0994A934289
:101EDC005DD8122B2AD8122B59D801A252F823F014
:101EEC00671F0008411F0008531F0008951F0008BA
:101EFC009B1F00089B1F00089B1F00089B1F0008CE
:101F0C009B1F00089B1F00089B1F00089B1F0008BD
:101F1C009B1F00089B1F00089B1F00089B1F0008AD
:101F2C009B1F0008491F00085D1F0008824A93424E
:101F3C0013D02CE03B68DB683B6229E03B68DB6834
:101F4C0004333B6224E03B68DB6808333B621FE0F0
:101F5C003B68DB680C333B621AE03B689B68002BE8
:101F6C0002D104233B6213E03B689B68012B05D133
:101F7C0008233B627B68FA691A6109E008233B621B
:101F8C007B68FA695A6103E000233B6200E000BF02
:101F9C00BB69FF2B01D87B6801E07B6804337B6154
:101FAC00BB69FF2B02D87B6A9B0002E07B6A083B73
:101FBC009B003B617B691A680F213B6901FA03F3B3
:101FCC00DB431A40396A3B6901FA03F31A437B6914
:101FDC001A603B685B6803F08053002B00F0908024
:101FEC00564B9B69554A43F001039361534B9B69D4
:101FFC0003F00103BB60BB68514A7B6A9B08023348
:10200C0052F82330FB607B6A03F003039B000F2222
:10201C0002FA03F3DB43FA681340FB607B68494A1E
:10202C0093420DD07B68484A934207D07B68474A5D
:10203C00934201D1022304E0032302E0012300E0D8
:10204C0000237A6A02F0030292009340FA68134369
:10205C00FB603B497B6A9B080233FA6841F82320FA
:10206C003B685B6803F48013002B06D0384B9A68EE
:10207C003749BB6913438B6006E0354B9A68BB69E3
:10208C00DB43334913408B603B685B6803F40013FC
:10209C00002B06D02E4BDA682D49BB691343CB605D
:1020AC0006E02B4BDA68BB69DB4329491340CB6054
:1020BC003B685B6803F40033002B06D0244B5A6852
:1020CC002349BB6913434B6006E0214B5A68BB693B
:1020DC00DB431F4913404B603B685B6803F4803360
:1020EC00002B06D01A4B1A681949BB6913430B60B5
:1020FC0006E0174B1A68BB69DB43154913400B60AC
:10210C007B6A01337B623B681A687B6A22FA03F3B1
:10211C00002B7FF4AFAE00BF00BF2C37BD4680BC98
:10212C00704700BF00003210000031100000221078
:10213C0000002110000012100000111000100240CD
:10214C000000014000080140000C0140001001405B
:10215C000004014080B485B000AF78600B467B80F2
:10216C007B689A687B881340002B02D00123FB7399
:10217C0001E00023FB73FB7B18461437BD4680BC83
:10218C00704780B483B000AF78600B467B801346F9
:10219C007B707B78002B03D07A887B681A6103E014
:1021AC007B881A047B681A6100BF0C37BD4680BC63
:1021BC00704780B485B000AF78600B467B807B683D
:1021CC00DB68FB607A88FB6813401A04FB68D94310
:1021DC007B880B401A437B681A6100BF1437BD46DD
:1021EC0080BC704780B586B000AF78607B68002BF0
:1021FC0001D101236CE27B681B6803F00103002B07
:10220C0000F08780924B5B6803F00C03042B0CD01E
:10221C008F4B5B6803F00C03082B12D18C4B5B6863
:10222C0003F48033B3F5803F0BD1894B1B6803F467
:10223C000033002B6CD07B685B68002B68D10123CA
:10224C0046E27B685B68B3F5803F06D1804B1B6828
:10225C007F4A43F4803313602EE07B685B68002B6D
:10226C000CD17B4B1B687A4A23F480331360784B78
:10227C001B68774A23F4802313601DE07B685B683E
:10228C00B3F5A02F0CD1724B1B68714A43F4802319
:10229C0013606F4B1B686E4A43F4803313600BE082
:1022AC006B4B1B686A4A23F480331360684B1B68C2
:1022BC00674A23F4802313607B685B68002B13D080
:1022CC00FFF7B6FC386108E0FFF7B2FC02463B6949
:1022DC00D31A642B01D90323FAE15D4B1B6803F479
:1022EC000033002BF0D014E0FFF7A2FC386108E0BB
:1022FC00FFF79EFC02463B69D31A642B01D90323DA
:10230C00E6E1534B1B6803F40033002BF0D100E0E3
:10231C0000BF7B681B6803F00203002B63D04C4B9F
:10232C005B6803F00C03002B0BD0494B5B6803F08C
:10233C000C03082B1CD1464B5B6803F48033002B39
:10234C0016D1434B1B6803F00203002B05D07B68AE
:10235C001B69012B01D00123BAE13D4B1B6823F013
:10236C00F8027B685B69DB00394913430B603AE088
:10237C007B681B69002B20D0364B01221A60FFF7BB
:10238C0057FC386108E0FFF753FC02463B69D31A4F
:10239C00022B01D903239BE12D4B1B6803F0020395
:1023AC00002BF0D02A4B1B6823F0F8027B685B698A
:1023BC00DB00274913430B6015E0264B00221A6003
:1023CC00FFF736FC386108E0FFF732FC02463B6948
:1023DC00D31A022B01D903237AE11D4B1B6803F09E
:1023EC000203002BF0D17B681B6803F00803002B61
:1023FC003AD07B689B69002B19D0174B01221A60CD
:10240C00FFF716FC386108E0FFF712FC02463B6947
:10241C00D31A022B01D903235AE10D4B5B6A03F04B
:10242C000203002BF0D0012000F09AFA1CE00A4BBA
:10243C0000221A60FFF7FCFB38610FE0FFF7F8FB96
:10244C0002463B69D31A022B08D9032340E100BF93
:10245C000010024000004242800442429E4B5B6AE4
:10246C0003F00203002BE9D17B681B6803F0040323
:10247C00002B00F0A6800023FB75974BDB6903F063
:10248C008053002B0DD1944BDB69934A43F080535E
:10249C00D361914BDB6903F08053BB60BB680123B4
:1024AC00FB758E4B1B6803F48073002B18D18B4B80
:1024BC001B688A4A43F480731360FFF7B9FB3861D9
:1024CC0008E0FFF7B5FB02463B69D31A642B01D930
:1024DC000323FDE0814B1B6803F48073002BF0D0C9
:1024EC007B68DB68012B06D17B4B1B6A7A4A43F075
:1024FC00010313622DE07B68DB68002B0CD1764B5B
:10250C001B6A754A23F001031362734B1B6A724AF0
:10251C0023F0040313621CE07B68DB68052B0CD1F1
:10252C006D4B1B6A6C4A43F0040313626A4B1B6AC3
:10253C00694A43F0010313620BE0674B1B6A664A5E
:10254C0023F001031362644B1B6A634A23F00403F8
:10255C0013627B68DB68002B15D0FFF769FB3861D1
:10256C000AE0FFF765FB02463B69D31A41F2883259
:10257C00934201D90323ABE0574B1B6A03F00203D0
:10258C00002BEED014E0FFF753FB38610AE0FFF7A5
:10259C004FFB02463B69D31A41F28832934201D970
:1025AC00032395E04C4B1B6A03F00203002BEED186
:1025BC00FB7D012B05D1484BDB69474A23F0805347
:1025CC00D3617B68DB69002B00F08180424B5B6838
:1025DC0003F00C03082B61D07B68DB69022B46D11E
:1025EC003F4B00221A60FFF723FB386108E0FFF72E
:1025FC001FFB02463B69D31A022B01D9032367E068
:10260C00354B1B6803F00073002BF0D17B681B6A01
:10261C00B3F5803F08D1304B5B6823F400327B6804
:10262C009B682D4913434B602B4B5B6823F474124E
:10263C007B68196A7B685B6A0B43274913434B60C1
:10264C00274B01221A60FFF7F3FA386108E0FFF715
:10265C00EFFA02463B69D31A022B01D9032337E068
:10266C001D4B1B6803F00073002BF0D02FE01C4BAC
:10267C0000221A60FFF7DCFA386108E0FFF7D8FA9D
:10268C0002463B69D31A022B01D9032320E0124BDB
:10269C001B6803F00073002BF0D118E07B68DB693A
:1026AC00012B01D1012313E00B4B5B68FB60FB6832
:1026BC0003F480327B681B6A9A4206D1FB6803F4F0
:1026CC0070127B685B6A9A4201D0012300E0002300
:1026DC0018461837BD4680BD0010024000700040FF
:1026EC006000424280B584B000AF786039607B688E
:1026FC00002B01D10123D0E06A4B1B6803F00703C8
:10270C003A689A4210D9674B1B6823F00702654957
:10271C003B6813430B60634B1B6803F007033A6879
:10272C009A4201D00123B8E07B681B6803F00203D6
:10273C00002B20D07B681B6803F00403002B05D012
:10274C00594B5B68584A43F4E06353607B681B68E1
:10275C0003F00803002B05D0534B5B68524A43F43B
:10276C0060535360504B5B6823F0F0027B689B68AE
:10277C004D4913434B607B681B6803F00103002B2E
:10278C0040D07B685B68012B07D1474B1B6803F477
:10279C000033002B15D101237FE07B685B68022B93
:1027AC0007D1414B1B6803F00073002B09D10123A7
:1027BC0073E03D4B1B6803F00203002B01D1012396
:1027CC006BE0394B5B6823F003027B685B6836492E
:1027DC0013434B60FFF72CFAF8600AE0FFF728FA76
:1027EC000246FB68D31A41F28832934201D9032383
:1027FC0053E02D4B5B6803F00C027B685B689B001D
:10280C009A42EBD1274B1B6803F007033A689A42B4
:10281C0010D2244B1B6823F0070222493B68134358
:10282C000B60204B1B6803F007033A689A4201D0F7
:10283C00012332E07B681B6803F00403002B08D0F3
:10284C00194B5B6823F4E0627B68DB681649134321
:10285C004B607B681B6803F00803002B09D0124BFC
:10286C005B6823F460527B681B69DB000E491343E1
:10287C004B6000F021F802460B4B5B681B0903F020
:10288C000F030A49CB5C22FA03F3094A1360094B84
:10289C001B681846FFF78AF9002318461037BD4607
:1028AC0080BD00BF0020024000100240D031000863
:1028BC004C0000205000002080B487B000AF0023F3
:1028CC00FB600023BB6000237B6100237B60002343
:1028DC003B611E4B5B68FB60FB6803F00C03042B35
:1028EC0002D0082B03D027E0194B3B6127E0FB6893
:1028FC009B0C03F00F03174AD35C7B60FB6803F45B
:10290C008033002B10D0114B5B685B0C03F0010380
:10291C00114AD35CBB607B680D4A02FB03F2BB68B7
:10292C00B2FBF3F37B6104E07B680C4A02FB03F31C
:10293C007B617B693B6102E0054B3B6100BF3B69FE
:10294C0018461C37BD4680BC704700BF00100240C3
:10295C0000127A00E0310008F031000800093D0057
:10296C0080B485B000AF78600A4B1B680A4AA2FBA2
:10297C0003235B0A7A6802FB03F3FB6000BFFB686E
:10298C005A1EFA60002BF9D100BF00BF1437BD46A8
:10299C0080BC70474C000020D34D621080B582B0D3
:1029AC0000AF78607B68002B01D1012341E07B688C
:1029BC0093F83D30DBB2002B06D17B68002283F804
:1029CC003C207868FFF75AF87B68022283F83D2098
:1029DC007B681A687B6804331946104600F056FA77
:1029EC007B68012283F846207B68012283F83E2015
:1029FC007B68012283F83F207B68012283F840200A
:102A0C007B68012283F841207B68012283F84220F5
:102A1C007B68012283F843207B68012283F84420E1
:102A2C007B68012283F845207B68012283F83D20D6
:102A3C00002318460837BD4680BD000080B485B021
:102A4C0000AF78607B6893F83D30DBB2012B01D08E
:102A5C00012335E07B68022283F83D207B681B68EC
:102A6C00DA687B681B6842F00102DA607B681B68DD
:102A7C00164A934209D07B681B68B3F1804F04D08F
:102A8C007B681B68124A934211D17B681B689B6858
:102A9C0003F00703FB60FB68062B10D07B681B68F8
:102AAC001A687B681B6842F001021A6007E07B68B9
:102ABC001B681A687B681B6842F001021A600023CD
:102ACC0018461437BD4680BC704700BF002C01402F
:102ADC000004004080B584B000AF78607B681B6850
:102AEC00DB68FB607B681B681B69BB60BB6803F021
:102AFC000203002B20D0FB6803F00203002B1BD039
:102B0C007B681B686FF002021A617B6801221A77DE
:102B1C007B681B689B6903F00303002B03D0786868
:102B2C0000F098F905E0786800F08BF9786800F00F
:102B3C009AF97B6800221A77BB6803F00403002B18
:102B4C0020D0FB6803F00403002B1BD07B681B68B0
:102B5C006FF004021A617B6802221A777B681B688B
:102B6C009B6903F44073002B03D0786800F072F972
:102B7C0005E0786800F065F9786800F074F97B6816
:102B8C0000221A77BB6803F00803002B20D0FB68E7
:102B9C0003F00803002B1BD07B681B686FF0080246
:102BAC001A617B6804221A777B681B68DB6903F067
:102BBC000303002B03D0786800F04CF905E078682B
:102BCC0000F03FF9786800F04EF97B6800221A7724
:102BDC00BB6803F01003002B20D0FB6803F010033C
:102BEC00002B1BD07B681B686FF010021A617B688E
:102BFC0008221A777B681B68DB6903F44073002B8F
:102C0C0003D0786800F026F905E0786800F019F92F
:102C1C00786800F028F97B6800221A77BB6803F00B
:102C2C000103002B0CD0FB6803F00103002B07D031
:102C3C007B681B686FF001021A617868FEF71CFE56
:102C4C00BB6803F08003002B0CD0FB6803F08003FF
:102C5C00002B07D07B681B686FF080021A617868C4
:102C6C0000F06FFABB6803F04003002B0CD0FB683C
:102C7C0003F04003002B07D07B681B686FF0400209
:102C8C001A61786800F0F8F8BB6803F02003002B99
:102C9C000CD0FB6803F02003002B07D07B681B686B
:102CAC006FF020021A61786800F042FA00BF10370A
:102CBC00BD4680BD80B584B000AF7860396000231C
:102CCC00FB737B6893F83C30012B01D10223B4E0F9
:102CDC007B68012283F83C207B68022283F83D202C
:102CEC007B681B689B68BB60BB6823F07703BB6089
:102CFC00BB6823F47F43BB607B681B68BA689A602F
:102D0C003B681B68B3F5005F3ED0B3F5005F00F283
:102D1C008780B3F5805F00F08680B3F5805F7FD845
:102D2C00702B1AD0702B7BD8602B50D0602B77D89F
:102D3C00502B3CD0502B73D8402B58D0402B6FD8F5
:102D4C00302B64D0302B6BD8202B60D0202B67D845
:102D5C00002B5CD0102B5AD062E07B6818683B6863
:102D6C0099683B685A683B68DB6800F06AF97B68D5
:102D7C001B689B68BB60BB6843F07703BB607B68D8
:102D8C001B68BA689A604FE07B6818683B68996862
:102D9C003B685A683B68DB6800F053F97B681B683A
:102DAC009A687B681B6842F480429A603CE07B68BE
:102DBC0018683B6859683B68DB681A4600F0CAF82B
:102DCC007B681B685021184600F021F92CE07B68C9
:102DDC0018683B6859683B68DB681A4600F0E8F8ED
:102DEC007B681B686021184600F011F91CE07B68B9
:102DFC0018683B6859683B68DB681A4600F0AAF80B
:102E0C007B681B684021184600F001F90CE07B68D8
:102E1C001A683B681B681946104600F0F8F803E086
:102E2C000123FB7300E000BF7B68012283F83D2087
:102E3C007B68002283F83C20FB7B18461037BD468C
:102E4C0080BD80B483B000AF786000BF0C37BD4646
:102E5C0080BC704780B483B000AF786000BF0C3783
:102E6C00BD4680BC704780B483B000AF786000BFB3
:102E7C000C37BD4680BC704780B483B000AF78601F
:102E8C0000BF0C37BD4680BC7047000080B485B0D5
:102E9C0000AF786039607B681B68FB607B682B4AED
:102EAC00934207D07B68B3F1804F03D07B68284AEC
:102EBC00934208D1FB6823F07003FB603B685B68AE
:102ECC00FA681343FB607B68204A934207D07B6807
:102EDC00B3F1804F03D07B681D4A934208D1FB6845
:102EEC0023F44073FB603B68DB68FA681343FB60B8
:102EFC00FB6823F080023B685B691343FB607B68D3
:102F0C00FA681A603B689A687B68DA623B681A68F0
:102F1C007B689A627B680D4A934203D13B681A69BD
:102F2C007B681A637B6801225A617B681B6903F01A
:102F3C000103002B05D07B681B6923F001027B6821
:102F4C001A6100BF1437BD4680BC7047002C01408D
:102F5C000004004080B487B000AFF860B9607A60BC
:102F6C00FB681B6A7B61FB681B6A23F00102FB6830
:102F7C001A62FB689B693B613B6923F0F0033B6180
:102F8C007B681B013A6913433B617B6923F00A039D
:102F9C007B617A69BB6813437B61FB683A699A6110
:102FAC00FB687A691A6200BF1C37BD4680BC70474B
:102FBC0080B487B000AFF860B9607A60FB681B6AB8
:102FCC007B61FB681B6A23F01002FB681A62FB68CA
:102FDC009B693B613B6923F470433B617B681B033A
:102FEC003A6913433B617B6923F0A0037B61BB68A7
:102FFC001B017A6913437B61FB683A699A61FB6830
:10300C007A691A6200BF1C37BD4680BC704780B419
:10301C0085B000AF786039607B689B68FB60FB68AB
:10302C0023F07003FB603A68FB68134343F007031B
:10303C00FB607B68FA689A6000BF1437BD4680BCA1
:10304C00704780B487B000AFF860B9607A603B60BD
:10305C00FB689B687B617B6923F47F437B613B68E6
:10306C001A027B681A43BB6813437A6913437B616A
:10307C00FB687A699A6000BF1C37BD4680BC7047FC
:10308C0080B485B000AF786039607B6893F83C30D1
:10309C00012B01D1022341E07B68012283F83C2003
:1030AC007B68022283F83D207B681B685B68FB60B1
:1030BC007B681B689B68BB60FB6823F07003FB603C
:1030CC003B681B68FA681343FB607B681B68FA68F3
:1030DC005A607B681B68144A934209D07B681B6852
:1030EC00B3F1804F04D07B681B68104A93420CD11B
:1030FC00BB6823F08003BB603B685B68BA68134312
:10310C00BB607B681B68BA689A607B68012283F895
:10311C003D207B68002283F83C200023184614379E
:10312C00BD4680BC704700BF002C0140000400402D
:10313C0080B483B000AF786000BF0C37BD4680BC54
:10314C00704780B483B000AF786000BF0C37BD46C9
:10315C0080BC704770B500260C4D0D4C641BA41040
:10316C00A64209D100F022F800260A4D0A4C641B35
:10317C00A410A64205D170BD55F8043B9847013602
:10318C00EEE755F8043B98470136F2E7F4310008B6
:10319C00F4310008F4310008F83100080346024409
:1031AC00934200D1704703F8011BF9E7F8B500BF53
:1031BC00F8BC08BC9E467047F8B500BFF8BC08BC0C
:0431CC009E46704764
:1031D00000000000000000000102030406070809C7
:1031E00002030405060708090A0B0C0D0E0F101048
:0431F00001020000D8
:0431F400310100089D
:0431F8000D010008BD
:1031FC0001000000010000000100000001000000BF
:10320C0001000000010000000100000001000000AE
:10321C00010000000100000001000000010000009E
:10322C00C8000000C8000000C8000000B80B000077
:10323C0088130000D00700000A00000000127A007A
:08324C00100000000100000069
:0400000508001B4193
:00000001FF
