:020000040800F2
:1000000000280020211B0008B11A0008B71A0008B8
:10001000BD1A0008C31A0008C91A00080000000031
:10002000000000000000000000000000CF1A0008DF
:10003000DB1A000800000000E71A0008F31A0008A5
:10004000691B0008691B0008691B0008691B000880
:10005000691B0008691B0008691B0008691B000870
:10006000691B0008691B0008691B0008691B000860
:10007000691B0008691B0008691B0008691B000850
:10008000691B0008691B0008691B0008691B000840
:10009000691B0008691B0008691B0008691B000830
:1000A000691B0008691B0008691B0008691B000820
:1000B000011B0008691B000800000000691B000804
:1000C000691B00080000000000000000691B000818
:1000D00000000000691B0008691B00080000000008
:1000E000691B0008691B0008691B0008000000006C
:1000F0000000000000000000000000000000000000
:0C01000000000000000000005FF808F1A3
:10010C0010B5054C237833B9044B13B10448AFF345
:10011C0000800123237010BD64000020000000004B
:10012C009831000808B5034B1BB103490348AFF3E2
:10013C00008008BD00000000680000209831000815
:10014C0080B582B000AF786000F0BAFD0346012B99
:10015C000BD17B681B685A1C7B681A607B681B6818
:10016C00632B02DD7B6801221A6000BF0837BD4695
:10017C0080BD80B582B000AF7860396000F0B2FD10
:10018C000346012B07D17B681B684FF47A7202FB84
:10019C0003F23B681A6000BF0837BD4680BD000003
:1001AC0080B582B000AF78607B68092B00F280814B
:1001BC0001A252F823F000BFED010008350200083F
:1001CC007D020008C50200080D0300085503000855
:1001DC009D030008E50300082D04000875040008C1
:1001EC0000220221B44801F0BCFF00220421B248D5
:1001FC0001F0B7FF00220821AF4801F0B2FF002246
:10020C001021AD4801F0ADFF00222021AA4801F0D9
:10021C00A8FF00224021A84801F0A3FF0122802161
:10022C00A54801F09EFF43E101220221A24801F002
:10023C0098FF00220421A04801F093FF002208211E
:10024C009D4801F08EFF012210219B4801F089FF8F
:10025C0001222021984801F084FF01224021964878
:10026C0001F07FFF01228021934801F07AFF1FE10A
:10027C0000220221904801F074FF002204218E48D4
:10028C0001F06FFF012208218B4801F06AFF002268
:10029C001021894801F065FF00222021864801F0D9
:1002AC0060FF01224021844801F05BFF0022802185
:1002BC00814801F056FFFBE0002202217E4801F04C
:1002CC0050FF002204217C4801F04BFF0022082142
:1002DC00794801F046FF00221021774801F041FFD8
:1002EC0001222021744801F03CFF01224021724878
:1002FC0001F037FF002280216F4801F032FFD7E078
:10030C00012202216C4801F02CFF002204216A48D2
:10031C0001F027FF00220821674801F022FF01228B
:10032C001021654801F01DFF01222021624801F0D7
:10033C0018FF00224021604801F013FF00228021A9
:10034C005D4801F00EFFB3E0002202215A4801F093
:10035C0008FF01220421584801F003FF0022082164
:10036C00554801F0FEFE00221021534801F0F9FE21
:10037C0001222021504801F0F4FE002240214E4879
:10038C0001F0EFFE002280214B4801F0EAFE8FE0E5
:10039C0000220221484801F0E4FE012204214648D3
:1003AC0001F0DFFE00220821434801F0DAFE0022B2
:1003BC001021414801F0D5FE002220213E4801F0D9
:1003CC00D0FE002240213C4801F0CBFE00228021CF
:1003DC00394801F0C6FE6BE000220221364801F0DC
:1003EC00C0FE00220421344801F0BBFE002208218B
:1003FC00314801F0B6FE012210212F4801F0B1FE68
:10040C00012220212C4801F0ACFE012240212A4877
:10041C0001F0A7FE01228021274801F0A2FE47E04F
:10042C0000220221244801F09CFE002204212248D3
:10043C0001F097FE002208211F4801F092FE0022D5
:10044C0010211D4801F08DFE002220211A4801F0D8
:10045C0088FE00224021184801F083FE00228021F2
:10046C00154801F07EFE23E000220221124801F023
:10047C0078FE00220421104801F073FE00220821AE
:10048C000D4801F06EFE002210210B4801F069FEB0
:10049C0001222021084801F064FE00224021064878
:1004AC0001F05FFE00228021034801F05AFE00BFDC
:1004BC0000BF0837BD4680BD000C014080B582B03E
:1004CC0000AF78607B68092B00F2C98101A252F859
:1004DC0023F000BF090500085F050008B5050008FA
:1004EC000B06000861060008B70600080D07000897
:1004FC0063070008B90700081508000800224FF42C
:10050C008071C04801F02DFE00224FF40071BD48EF
:10051C0001F027FE00224FF48061BA4801F021FE61
:10052C0000224FF40061B74801F01BFE00224FF48B
:10053C008051B44801F015FE00224FF40051B1482F
:10054C0001F00FFE01224FF48041AE4801F009FE8C
:10055C0085E101224FF48071AA4801F002FE0022CD
:10056C004FF40071A74801F0FCFD00224FF48061AC
:10057C00A44801F0F6FD01224FF40061A14801F0FE
:10058C00F0FD01224FF480519E4801F0EAFD01225A
:10059C004FF400519B4801F0E4FD01224FF48041DF
:1005AC00984801F0DEFD5AE100224FF48071954825
:1005BC0001F0D7FD00224FF40071924801F0D1FDFB
:1005CC0001224FF480618F4801F0CBFD00224FF4E3
:1005DC0000618C4801F0C5FD00224FF48051894820
:1005EC0001F0BFFD01224FF40051864801F0B9FD26
:1005FC0000224FF48041834801F0B3FD2FE100222B
:10060C004FF480717F4801F0ACFD00224FF4007173
:10061C007C4801F0A6FD00224FF48061794801F07E
:10062C00A0FD00224FF40061764801F09AFD0122F2
:10063C004FF48051734801F094FD01224FF40051A6
:10064C00704801F08EFD00224FF480416D4801F09E
:10065C0088FD04E101224FF480716A4801F081FDAC
:10066C0000224FF40071674801F07BFD00224FF42B
:10067C008061644801F075FD01224FF4006161480E
:10068C0001F06FFD01224FF480515E4801F069FDCD
:10069C0000224FF400515B4801F063FD00224FF43F
:1006AC008041584801F05DFDD9E000224FF4807183
:1006BC00544801F056FD01224FF40071514801F0ED
:1006CC0050FD00224FF480614E4801F04AFD00229B
:1006DC004FF400614B4801F044FD01224FF480516E
:1006EC00484801F03EFD00224FF40051454801F00E
:1006FC0038FD00224FF48041424801F032FDAEE05B
:10070C0000224FF480713F4801F02BFD01224FF481
:10071C0000713C4801F025FD00224FF480613948FE
:10072C0001F01FFD00224FF40061364801F019FD65
:10073C0000224FF48051334801F013FD00224FF496
:10074C000051304801F00DFD00224FF480412D483E
:10075C0001F007FD83E000224FF48071294801F07D
:10076C0000FD00224FF40071264801F0FAFC002233
:10077C004FF48061234801F0F4FC01224FF4006136
:10078C00204801F0EEFC01224FF480511D4801F08D
:10079C00E8FC01224FF400511A4801F0E2FC01225E
:1007AC004FF48041174801F0DCFC58E000224FF474
:1007BC008071144801F0D5FC00224FF400711148EF
:1007CC0001F0CFFC00224FF480610E4801F0C9FC0F
:1007DC0000224FF400610B4801F0C3FC00224FF4DF
:1007EC008051084801F0BDFC00224FF4005105482F
:1007FC0001F0B7FC00224FF48041024801F0B1FC3B
:10080C002DE000BF000C014000224FF4807116480F
:10081C0001F0A7FC00224FF40071134801F0A1FC79
:10082C0000224FF48061104801F09BFC00224FF431
:10083C0000610D4801F095FC01224FF480510A48EB
:10084C0001F08FFC00224FF40051074801F089FCA5
:10085C0000224FF48041044801F083FC00BF00BF2C
:10086C000837BD4680BD00BF000C014080B582B08A
:10087C0000AF78607B68092B00F2BC8101A252F8B2
:10088C0023F000BFB90800080D0900086109000831
:10089C00B5090008090A00085D0A0008B10A000839
:1008AC00050B0008590B0008AD0B000800224FF493
:1008BC008061D24801F055FC00224FF40061CF4812
:1008CC0001F04FFC00224FF48051CC4801F049FC60
:1008DC0000224FF40051C94801F043FC00224FF4B0
:1008EC008041C64801F03DFC00224FF40041C34852
:1008FC0001F037FC01220121C14801F032FC79E101
:10090C0001224FF48061BD4801F02BFC00224FF412
:10091C000061BA4801F025FC00224FF48051B74821
:10092C0001F01FFC01224FF40051B44801F019FCF6
:10093C0001224FF48041B14801F013FC01224FF425
:10094C000041AE4801F00DFC01220121AC4801F040
:10095C0008FC4FE100224FF48061A84801F001FC33
:10096C0000224FF40061A54801F0FBFB01224FF47B
:10097C008051A24801F0F5FB00224FF400519F4832
:10098C0001F0EFFB00224FF480419C4801F0E9FBA1
:10099C0001224FF40041994801F0E3FB00220121B0
:1009AC00974801F0DEFB25E100224FF4806193486B
:1009BC0001F0D7FB00224FF40061904801F0D1FB0D
:1009CC0000224FF480518D4801F0CBFB00224FF4F4
:1009DC0000518A4801F0C5FB01224FF48041874841
:1009EC0001F0BFFB01224FF40041844801F0B9FB38
:1009FC0000220121824801F0B4FBFBE001224FF4FC
:100A0C0080617E4801F0ADFB00224FF400617B4811
:100A1C0001F0A7FB00224FF48051784801F0A1FBB4
:100A2C0001224FF40051754801F09BFB01224FF459
:100A3C008041724801F095FB00224FF400416F4851
:100A4C0001F08FFB002201216D4801F08AFBD1E0FF
:100A5C0000224FF48061694801F083FB01224FF4BE
:100A6C000061664801F07DFB00224FF48051634821
:100A7C0001F077FB00224FF40051604801F071FB4C
:100A8C0001224FF480415D4801F06BFB00224FF4D2
:100A9C0000415A4801F065FB00220121584801F041
:100AAC0060FBA7E000224FF48061544801F059FB31
:100ABC0001224FF40061514801F053FB00224FF426
:100ACC0080514E4801F04DFB00224FF400514B4831
:100ADC0001F047FB00224FF48041484801F041FBF4
:100AEC0000224FF40041454801F03BFB002201215C
:100AFC00434801F036FB7DE000224FF480613F4813
:100B0C0001F02FFB00224FF400613C4801F029FB5F
:100B1C0000224FF48051394801F023FB01224FF49D
:100B2C000051364801F01DFB01224FF4804133483F
:100B3C0001F017FB01224FF40041304801F011FB8A
:100B4C00012201212E4801F00CFB53E000224FF44E
:100B5C0080612A4801F005FB00224FF40061274810
:100B6C0001F0FFFA00224FF48051244801F0F9FA09
:100B7C0000224FF40051214801F0F3FA00224FF407
:100B8C0080411E4801F0EDFA00224FF400411B4851
:100B9C0001F0E7FA00220121194801F0E2FA29E0FC
:100BAC0000224FF48061154801F0DBFA00224FF46B
:100BBC000061124801F0D5FA00224FF480510F4821
:100BCC0001F0CFFA00224FF400510C4801F0C9FAA1
:100BDC0001224FF48041094801F0C3FA00224FF47E
:100BEC000041064801F0BDFA00220121044801F041
:100BFC00B8FA00BF00BF0837BD4680BD00080140F1
:100C0C00000C014080B582B000AF78607B68002B8F
:100C1C0003D07B68012B17D032E0002201211A4847
:100C2C0001F09FFA01224FF40041184801F099FAA3
:100C3C00174B1B68174A82FB03125211DB17D31A8E
:100C4C001846FFF713FE1BE0012201210E4801F0AC
:100C5C0088FA00224FF400410C4801F082FA0C4B48
:100C6C001A680D4B83FB02139910D317C91A0B4644
:100C7C009B000B445B00D11A0846FFF7F7FD00BF41
:100C8C0000BF0837BD4680BD00080140000C014084
:100C9C00980000201F85EB516766666680B400AF34
:100CAC00064B1B68012B04D1044B00221A60012354
:100CBC0000E000231846BD4680BC70478000002031
:100CCC0080B400AF064B1B68012B04D1044B0022EF
:100CDC001A60012300E000231846BD4680BC704713
:100CEC008400002080B400AF064B1B68012B04D19C
:100CFC00044B00221A60012300E000231846BD4675
:100D0C0080BC70478800002080B400AF034B0122E8
:100D1C001A6000BFBD4680BC704700BF8000002039
:100D2C0080B400AF034B01221A6000BFBD4680BCEB
:100D3C00704700BF8400002080B400AF034B012239
:100D4C001A6000BFBD4680BC704700BF8800002001
:100D5C0080B500AF5A4B1B685A4A13605A4B1B683C
:100D6C00574A13600221594801F0E4F903461A4628
:100D7C00554B1A60534B1A68514B1B689A4225D13C
:100D8C004F4B1A68504B1B689A421FD1504B1A6834
:100D9C004D4B1B689A420DD04B4B1B684C4A136051
:100DAC00494B1B68002B11D1FFF7AEFF494BC822F2
:100DBC001A600BE0474B1B68013B464A1360454BDE
:100DCC001B68002B02D1424B01221A60424B1B685C
:100DDC00424A1360424B1B683F4A136004213B4854
:100DEC0001F0A8F903461A463D4B1A603B4B1A68B2
:100DFC00394B1B689A4225D1374B1A68384B1B6804
:100E0C009A421FD1374B1A68354B1B689A420DD04A
:100E1C00334B1B68334A1360314B1B68002B11D1C9
:100E2C00FFF77EFF304BC8221A600BE02E4B1B687D
:100E3C00013B2D4A13602C4B1B68002B02D1294B14
:100E4C0001221A60294B1B68294A1360294B1B6825
:100E5C00264A136008211D4801F06CF903461A4616
:100E6C00244B1A60224B1A68204B1B689A4225D1DE
:100E7C001E4B1A681F4B1B689A421FD11E4B1A68D7
:100E8C001C4B1B689A420DD01A4B1B681A4A1360F4
:100E9C00184B1B68002B11D1FFF74EFF174BC822C4
:100EAC001A600BE0154B1B68013B144A1360134B83
:100EBC001B68002B02D1104B01221A6000BF80BDB1
:100ECC000400002000000020080000200008014061
:100EDC000C00002030000020140000201000002026
:100EEC00180000201C0000203400002024000020EA
:100EFC0020000020280000202C00002038000020BA
:100F0C0080B500AFAC4B1B68013B032B00F2188182
:100F1C0001A252F823F000BF350F00087D0F000826
:100F2C0019100008B310000801224021A34801F059
:100F3C0018F901222021A14801F013F901221021F6
:100F4C009E4801F00EF99C4B02221A604FF47A7005
:100F5C0000F094FCFA2000F0DFFC994B1B68994AD6
:100F6C0082FB03129211DB17D31A974A1360EEE03F
:100F7C0000224021914801F0F4F8012220218F48F1
:100F8C0001F0EFF8012210218C4801F0EAF88F4BA8
:100F9C001B68012B23D18C4B1B68013B8A4A1360C5
:100FAC004FF47A7000F06AFC874B1B68884A82FB0E
:100FBC0003129210DB17D31A1846FFF7F1F8824B85
:100FCC001A68834B83FB02139910D317C91A0B466B
:100FDC009B000B445B00D11A0846FFF76FFA7A4B63
:100FEC001B68002B00F3AE80734B03221A604FF486
:100FFC007A7000F043FC774B1B68724A82FB031239
:10100C009211DB17D31A744A13609BE00122402122
:10101C006A4801F0A6F801222021684801F0A1F8E5
:10102C0000221021654801F09CF8684B1B68012BCD
:10103C0023D1694B1B68013B674A13604FF47A70EC
:10104C0000F01CFC644B1B68614A82FB031292107B
:10105C00DB17D31A1846FFF7A3F85F4B1A685C4BE3
:10106C0083FB02139910D317C91A0B469B000B4430
:10107C005B00D11A0846FFF721FA574B1B68002B6F
:10108C0062DC4D4B04221A604FF47A7000F0F6FBD0
:10109C00524B1B684B4A82FB03129211DB17D31A7B
:1010AC004F4A136050E001224021444801F059F8A6
:1010BC0000222021414801F054F8012210213F4820
:1010CC0001F04FF8414B1B68012B23D1444B1B689B
:1010DC00013B434A13604FF47A7000F0CFFB404B56
:1010EC001B683B4A82FB03129210DB17D31A18467B
:1010FC00FFF756F83A4B1A68354B83FB02139910DD
:10110C00D317C91A0B469B000B445B00D11A084637
:10111C00FFF7D4F9324B1B68002B17DC264B02224D
:10112C001A604FF47A7000F0A9FB254B1B68254A16
:10113C0082FB03129211DB17D31A234A136005E0CA
:10114C0000BF04E000BF02E000BF00E000BF254B81
:10115C001B68013B032B00F2E78001A252F823F03D
:10116C007D110008CD120008FD1100086512000861
:10117C0001224FF40071114800F0F3FF01224FF4EB
:10118C0080710E4800F0EDFF012280210B4800F029
:10119C00E8FF144B03221A604FF47A7000F088FBBE
:1011AC00114B1B68074A82FB03129211DB17D31AEF
:1011BC000E4A1360BFE000BF900000200008014001
:1011CC0040000020D34D6210C4000020A00000207D
:1011DC00676666663C000020CC00002044000020BE
:1011EC00D00000209400002048000020BC0000200B
:1011FC0001224FF40071514800F0B3FF01224FF46B
:10120C0080714E4800F0ADFF002280214B4800F069
:10121C00A8FF4B4B1B68012B08D14A4B1B68013BA9
:10122C00484A13604FF47A7000F042FB454B1B6840
:10123C00002B7BDC444B04221A60444B1B68444A51
:10124C0082FB03129211DB17D31A424A13604FF43C
:10125C007A7000F02DFB69E001224FF400713748E1
:10126C0000F07FFF00224FF48071344800F079FFCA
:10127C0001228021314800F074FF314B1B68012B97
:10128C0008D1344B1B68013B324A13604FF47A701F
:10129C0000F00EFB2F4B1B68002B49DC2A4B022263
:1012AC001A602D4B1B682A4A82FB03129211DB1722
:1012BC00D31A2A4A13604FF47A7000F0F9FA37E027
:1012CC0000224FF400711D4800F04BFF01224FF437
:1012DC0080711A4800F045FF01228021174800F068
:1012EC0040FF174B1B68012B08D11C4B1B68013BA3
:1012FC001A4A13604FF47A7000F0DAFA174B1B6835
:10130C00002B17DC104B03221A60154B1B68104A7C
:10131C0082FB03129211DB17D31A0A4A13604FF4A3
:10132C007A7000F0C5FA05E000BF04E000BF02E0EF
:10133C0000BF00E000BF00BF80BD00BF000801403F
:10134C00A8000020BC0000209400002050000020C9
:10135C00D34D6210C00000204C000020C8000020BB
:10136C004800002080B500AFA64B1B68012B13D1A1
:10137C00A54B1B681846FFF745FCA34B1B680133B4
:10138C00A14A1360A04B1B68012B02DD9E4B00226F
:10139C001A60FA2000F0C0FAFFF7A4FC0346012BF8
:1013AC0008D19A4B01221A60994B01221A60994B71
:1013BC0001221A60954B1B68013B0D2B00F2178123
:1013CC0001A252F823F000BF0D140008FB15000811
:1013DC00FB150008FB150008FB150008FB150008A1
:1013EC00FB150008FB150008FB150008FB15000891
:1013FC00FB1500083F140008DD14000875150008E3
:10140C00FFF77EFDFFF74AFC0346012B40F0F1800D
:10141C007E4B0C221A60804B1B68804A82FB0312A5
:10142C009211DB17D31A7E4A1360FA2000F05AFA95
:10143C00DFE07C4B1B68012B21D140217A4800F066
:10144C00A8FEFA2000F04EFA754B1B68774A82FB17
:10145C0003129210DB17D31A1846FEF7A1FE704B3D
:10146C001A68724B83FB02139910D317C91A0B46D7
:10147C009B000B445B00D11A0846FFF71FF80122B2
:10148C002021694800F06DFE01221021664800F011
:10149C0068FE63496048FEF753FE5F496048FEF7FB
:1014AC0068FEFFF7FBFB0346012B40F0A480574B73
:1014BC000D221A605E4B1B68584A82FB0312921174
:1014CC00DB17D31A5B4A1360FA2000F00BFA92E098
:1014DC00544B1B68012B21D11021534800F059FEAD
:1014EC00FA2000F0FFF9534B1B68504A82FB0312A1
:1014FC009210DB17D31A1846FEF752FE4D4B1A68A2
:10150C004A4B83FB02139910D317C91A0B469B0045
:10151C000B445B00D11A0846FEF7D0FF01222021B4
:10152C00414800F01EFE012240213F4800F019FE08
:10153C004048FEF705FE3E48FEF71BFEFFF7AEFBEC
:10154C000346012B59D1314B0E221A603A4B1B68C2
:10155C00324A82FB03129211DB17D31A374A1360FB
:10156C00FA2000F0BFF948E02E4B1B68012B21D16B
:10157C0020212D4800F00DFEFA2000F0B3F92F4B7E
:10158C001B682A4A82FB03129210DB17D31A1846E7
:10159C00FEF706FE294B1A68244B83FB02139910A5
:1015AC00D317C91A0B469B000B445B00D11A084693
:1015BC00FEF784FF012240211B4800F0D2FD0122DE
:1015CC001021194800F0CDFD1C48FEF7B9FD1A4951
:1015DC001A48FEF7CEFDFFF761FB0346012B0ED137
:1015EC000A4B01221A60FA2000F07CF907E000BFD8
:1015FC0006E000BF04E000BF02E000BF00E000BF57
:10160C0000BF80BDB80000208C0000209800002096
:10161C00900000209400002040000020D34D621068
:10162C00D8000020B0000020000801406766666604
:10163C003C000020D400002044000020DC000020EE
:10164C0080B500AF00F08CFA00F01CF800F0A2F8A6
:10165C0000F054F8074801F0E1F9074B01221A6039
:10166C00064B01221A60064B01221A60FFF77AFE24
:10167C00FCE700BFE0000020900000209400002058
:10168C009800002080B590B000AF07F11803282215
:10169C000021184601F072FD3B1D00221A605A60B1
:1016AC009A60DA601A610223BB610123BB621023CA
:1016BC00FB6200237B6307F11803184600F082FDE0
:1016CC000346002B01D000F0D3F80F237B600023DE
:1016DC00BB600023FB6000233B6100237B613B1D4F
:1016EC000021184600F0EEFF0346002B01D000F05D
:1016FC00BFF800BF4037BD4680BD000080B586B046
:10170C0000AF07F1080300221A605A609A60DA6091
:10171C003B4600221A605A601D4B4FF080421A6003
:10172C001B4B41F63F725A60194B00229A60184BC2
:10173C000922DA60164B00221A61154B00229A61BD
:10174C00134801F01BF90346002B01D000F090F870
:10175C004FF48053BB6007F1080319460C4801F0A5
:10176C0099FA0346002B01D000F082F800233B606D
:10177C0000237B603B461946054801F071FC03468B
:10178C00002B01D000F074F800BF1837BD4680BDA7
:10179C00E000002080B586B000AF07F108030022FE
:1017AC001A605A609A60DA60284B9B69274A43F0AA
:1017BC0004039361254B9B6903F004037B607B68F6
:1017CC00224B9B69214A43F0080393611F4B9B6991
:1017DC0003F008033B603B6800224FF6F1711C4894
:1017EC0000F0BFFC00224FF6FF711A4800F0B9FC64
:1017FC004FF6F173BB600123FB6000233B610223B6
:10180C007B6107F108031946114800F019FB0E2300
:10181C00BB600023FB6001233B6107F10803194601
:10182C000B4800F00DFB4FF6FF73BB600123FB6010
:10183C0000233B6102237B6107F10803194605482D
:10184C0000F0FEFA00BF1837BD4680BD0010024004
:10185C0000080140000C014080B582B000AF7860F8
:10186C0000F074F8FFF774FA00BF0837BD4680BD6E
:10187C0080B400AF72B600BFFEE7000080B483B046
:10188C0000AF7860074B1B687A6892FBF3F3064A4B
:10189C001360064B00221A6000BF0C37BD4680BC9B
:1018AC00704700BF540000209C000020A0000020C6
:1018BC0080B483B000AF7860074B1B687A6892FBEA
:1018CC00F3F3064A1360064B00221A6000BF0C3774
:1018DC00BD4680BC704700BF54000020A40000200F
:1018EC00A800002080B483B000AF7860074B1B6861
:1018FC007A6892FBF3F3064A1360064B00221A60D7
:10190C0000BF0C37BD4680BC704700BF54000020A0
:10191C00AC000020B000002080B483B000AF786031
:10192C00074B1B687A6892FBF3F3064A1360064B6D
:10193C0000221A6000BF0C37BD4680BC704700BF48
:10194C0054000020B4000020B800002080B400AF88
:10195C00214B1B68002B0BDD1F4B1B68013B1E4AE8
:10196C0013601D4B1B68002B02DC1C4B01221A6000
:10197C001B4B1B68002B0BDD194B1B68013B184ADA
:10198C001360174B1B68002B02DC164B01221A60EC
:10199C00154B1B68002B0BDD134B1B68013B124ACC
:1019AC001360114B1B68002B02DC104B01221A60D8
:1019BC000F4B1B68002B0BDD0D4B1B68013B0C4ABE
:1019CC0013600B4B1B68002B02DC0A4B01221A60C4
:1019DC0000BFBD4680BC70479C000020A0000020CA
:1019EC00A4000020A8000020AC000020B0000020C3
:1019FC00B4000020B800002080B485B000AF154BB7
:101A0C009B69144A43F001039361124B9B6903F0E9
:101A1C000103BB60BB680F4BDB690E4A43F080537C
:101A2C00D3610C4BDB6903F080537B607B680A4B02
:101A3C005B68FB60FB6823F0E063FB60FB6843F0D2
:101A4C008063FB60044AFB68536000BF1437BD46DB
:101A5C0080BC7047001002400000014080B584B08B
:101A6C0000AF78607B681B68B3F1804F13D10C4BCF
:101A7C00DB690B4A43F00103D361094BDB6903F0CB
:101A8C000103FB60FB68002200211C2000F0A1F97F
:101A9C001C2000F0BAF900BF1037BD4680BD00BF56
:101AAC000010024080B400AFFEE780B400AFFEE748
:101ABC0080B400AFFEE780B400AFFEE780B400AFA7
:101ACC00FEE780B400AF00BFBD4680BC704780B459
:101ADC0000AF00BFBD4680BC704780B400AF00BFF4
:101AEC00BD4680BC704780B500AF00F07FF800BFEA
:101AFC0080BD000080B500AF024800F0DBFF00BFE6
:101B0C0080BD00BFE000002080B400AF00BFBD4628
:101B1C0080BC7047FFF7F8FF0B480C490C4A0023B8
:101B2C0002E0D458C4500433C4188C42F9D3094A87
:101B3C00094C002301E013600432A242FBD301F0F4
:101B4C00F9FAFFF77DFD70470000002064000020CB
:101B5C00DC310008640000202C010020FEE70000AE
:101B6C0080B500AF084B1B68074A43F010031360A5
:101B7C00032000F023F90F2000F008F8FFF73CFFDA
:101B8C000023184680BD00BF0020024080B582B003
:101B9C0000AF7860124B1A68124B1B7819464FF441
:101BAC007A73B3FBF1F3B2FBF3F3184600F03BF995
:101BBC000346002B01D001230EE07B680F2B0AD8C3
:101BCC00002279684FF0FF3000F003F9064A7B6879
:101BDC001360002300E0012318460837BD4680BD82
:101BEC0058000020600000205C00002080B400AF92
:101BFC00054B1B781A46054B1B681344034A1360AC
:101C0C0000BFBD4680BC704760000020280100204A
:101C1C0080B400AF024B1B681846BD4680BC7047B1
:101C2C002801002080B485B000AF78607B6803F099
:101C3C000703FB600C4BDB68BB60BA684FF6FF0315
:101C4C001340BB60FB681A02BB68134343F0BF63CD
:101C5C0043F40033BB60044ABB68D36000BF143745
:101C6C00BD4680BC704700BF00ED00E080B400AF03
:101C7C00044BDB681B0A03F007031846BD4680BC07
:101C8C00704700BF00ED00E080B483B000AF0346A6
:101C9C00FB7197F90730002B0BDBFB7903F01F026C
:101CAC00064997F907305B09012000FA02F241F866
:101CBC00232000BF0C37BD4680BC704700E100E01C
:101CCC0080B483B000AF03463960FB7197F90730DD
:101CDC00002B0ADB3B68DAB20C4997F9073012018A
:101CEC00D2B20B4483F800230AE03B68DAB208490D
:101CFC00FB7903F00F03043B1201D2B20B441A76AA
:101D0C0000BF0C37BD4680BC704700BF00E100E04F
:101D1C0000ED00E080B489B000AFF860B9607A6083
:101D2C00FB6803F00703FB61FB69C3F10703042B9A
:101D3C0028BF0423BB61FB690433062B02D9FB6962
:101D4C00033B00E000237B614FF0FF32BB6902FADA
:101D5C0003F3DA43BB681A407B699A404FF0FF31BA
:101D6C007B6901FA03F3D9437B680B401343184694
:101D7C002437BD4680BC704780B582B000AF786018
:101D8C007B68013BB3F1807F01D301230FE00A4A4A
:101D9C007B68013B53600F214FF0FF30FFF790FF42
:101DAC00054B00229A60044B07221A600023184648
:101DBC000837BD4680BD00BF10E000E080B582B0A2
:101DCC0000AF78607868FFF72DFF00BF0837BD467D
:101DDC0080BD80B586B000AF0346B9607A60FB73F6
:101DEC0000237B61FFF742FF78617A68B9687869F4
:101DFC00FFF790FF024697F90F3011461846FFF790
:101E0C005FFF00BF1837BD4680BD80B582B000AF04
:101E1C000346FB7197F907301846FFF735FF00BFF3
:101E2C000837BD4680BD80B582B000AF7860786859
:101E3C00FFF7A2FF034618460837BD4680BD0000D9
:101E4C0080B48BB000AF7860396000237B620023D4
:101E5C003B6248E101227B6A02FA03F3FB613B68B7
:101E6C001B68FA691340BB61BA69FB699A4240F07E
:101E7C0037813B685B68A34A93425ED0A14A934288
:101E8C0075D8A14A934258D09F4A93426FD89F4A23
:101E9C00934252D09D4A934269D89D4A93424CD06A
:101EAC009B4A934263D89B4A934246D0994A9342A9
:101EBC005DD8122B2AD8122B59D801A252F823F034
:101ECC00471F0008211F0008331F0008751F00085A
:101EDC007B1F00087B1F00087B1F00087B1F00086E
:101EEC007B1F00087B1F00087B1F00087B1F00085E
:101EFC007B1F00087B1F00087B1F00087B1F00084E
:101F0C007B1F0008291F00083D1F0008824A9342CE
:101F1C0013D02CE03B68DB683B6229E03B68DB6854
:101F2C0004333B6224E03B68DB6808333B621FE010
:101F3C003B68DB680C333B621AE03B689B68002B08
:101F4C0002D104233B6213E03B689B68012B05D153
:101F5C0008233B627B68FA691A6109E008233B623B
:101F6C007B68FA695A6103E000233B6200E000BF22
:101F7C00BB69FF2B01D87B6801E07B6804337B6174
:101F8C00BB69FF2B02D87B6A9B0002E07B6A083B93
:101F9C009B003B617B691A680F213B6901FA03F3D3
:101FAC00DB431A40396A3B6901FA03F31A437B6934
:101FBC001A603B685B6803F08053002B00F0908044
:101FCC00564B9B69554A43F001039361534B9B69F4
:101FDC0003F00103BB60BB68514A7B6A9B08023368
:101FEC0052F82330FB607B6A03F003039B000F2243
:101FFC0002FA03F3DB43FA681340FB607B68494A3F
:10200C0093420DD07B68484A934207D07B68474A7D
:10201C00934201D1022304E0032302E0012300E0F8
:10202C0000237A6A02F0030292009340FA68134389
:10203C00FB603B497B6A9B080233FA6841F823201A
:10204C003B685B6803F48013002B06D0384B9A680E
:10205C003749BB6913438B6006E0354B9A68BB6903
:10206C00DB43334913408B603B685B6803F400131C
:10207C00002B06D02E4BDA682D49BB691343CB607D
:10208C0006E02B4BDA68BB69DB4329491340CB6074
:10209C003B685B6803F40033002B06D0244B5A6872
:1020AC002349BB6913434B6006E0214B5A68BB695B
:1020BC00DB431F4913404B603B685B6803F4803380
:1020CC00002B06D01A4B1A681949BB6913430B60D5
:1020DC0006E0174B1A68BB69DB43154913400B60CC
:1020EC007B6A01337B623B681A687B6A22FA03F3D2
:1020FC00002B7FF4AFAE00BF00BF2C37BD4680BCB9
:10210C00704700BF00003210000031100000221098
:10211C0000002110000012100000111000100240ED
:10212C000000014000080140000C0140001001407B
:10213C000004014080B485B000AF78600B467B8012
:10214C007B689A687B881340002B02D00123FB73B9
:10215C0001E00023FB73FB7B18461437BD4680BCA3
:10216C00704780B483B000AF78600B467B80134619
:10217C007B707B78002B03D07A887B681A6103E034
:10218C007B881A047B681A6100BF0C37BD4680BC83
:10219C00704780B485B000AF78600B467B807B685D
:1021AC00DB68FB607A88FB6813401A04FB68D94330
:1021BC007B880B401A437B681A6100BF1437BD46FD
:1021CC0080BC704780B586B000AF78607B68002B10
:1021DC0001D101236CE27B681B6803F00103002B27
:1021EC0000F08780924B5B6803F00C03042B0CD03F
:1021FC008F4B5B6803F00C03082B12D18C4B5B6884
:10220C0003F48033B3F5803F0BD1894B1B6803F487
:10221C000033002B6CD07B685B68002B68D10123EA
:10222C0046E27B685B68B3F5803F06D1804B1B6848
:10223C007F4A43F4803313602EE07B685B68002B8D
:10224C000CD17B4B1B687A4A23F480331360784B98
:10225C001B68774A23F4802313601DE07B685B685E
:10226C00B3F5A02F0CD1724B1B68714A43F4802339
:10227C0013606F4B1B686E4A43F4803313600BE0A2
:10228C006B4B1B686A4A23F480331360684B1B68E2
:10229C00674A23F4802313607B685B68002B13D0A0
:1022AC00FFF7B6FC386108E0FFF7B2FC02463B6969
:1022BC00D31A642B01D90323FAE15D4B1B6803F499
:1022CC000033002BF0D014E0FFF7A2FC386108E0DB
:1022DC00FFF79EFC02463B69D31A642B01D90323FA
:1022EC00E6E1534B1B6803F40033002BF0D100E004
:1022FC0000BF7B681B6803F00203002B63D04C4BC0
:10230C005B6803F00C03002B0BD0494B5B6803F0AC
:10231C000C03082B1CD1464B5B6803F48033002B59
:10232C0016D1434B1B6803F00203002B05D07B68CE
:10233C001B69012B01D00123BAE13D4B1B6823F033
:10234C00F8027B685B69DB00394913430B603AE0A8
:10235C007B681B69002B20D0364B01221A60FFF7DB
:10236C0057FC386108E0FFF753FC02463B69D31A6F
:10237C00022B01D903239BE12D4B1B6803F00203B5
:10238C00002BF0D02A4B1B6823F0F8027B685B69AA
:10239C00DB00274913430B6015E0264B00221A6023
:1023AC00FFF736FC386108E0FFF732FC02463B6968
:1023BC00D31A022B01D903237AE11D4B1B6803F0BE
:1023CC000203002BF0D17B681B6803F00803002B81
:1023DC003AD07B689B69002B19D0174B01221A60ED
:1023EC00FFF716FC386108E0FFF712FC02463B6968
:1023FC00D31A022B01D903235AE10D4B5B6A03F06C
:10240C000203002BF0D0012000F09AFA1CE00A4BDA
:10241C0000221A60FFF7FCFB38610FE0FFF7F8FBB6
:10242C0002463B69D31A022B08D9032340E100BFB3
:10243C000010024000004242800442429E4B5B6A04
:10244C0003F00203002BE9D17B681B6803F0040343
:10245C00002B00F0A6800023FB75974BDB6903F083
:10246C008053002B0DD1944BDB69934A43F080537E
:10247C00D361914BDB6903F08053BB60BB680123D4
:10248C00FB758E4B1B6803F48073002B18D18B4BA0
:10249C001B688A4A43F480731360FFF7B9FB3861F9
:1024AC0008E0FFF7B5FB02463B69D31A642B01D950
:1024BC000323FDE0814B1B6803F48073002BF0D0E9
:1024CC007B68DB68012B06D17B4B1B6A7A4A43F095
:1024DC00010313622DE07B68DB68002B0CD1764B7B
:1024EC001B6A754A23F001031362734B1B6A724A11
:1024FC0023F0040313621CE07B68DB68052B0CD112
:10250C006D4B1B6A6C4A43F0040313626A4B1B6AE3
:10251C00694A43F0010313620BE0674B1B6A664A7E
:10252C0023F001031362644B1B6A634A23F0040318
:10253C0013627B68DB68002B15D0FFF769FB3861F1
:10254C000AE0FFF765FB02463B69D31A41F2883279
:10255C00934201D90323ABE0574B1B6A03F00203F0
:10256C00002BEED014E0FFF753FB38610AE0FFF7C5
:10257C004FFB02463B69D31A41F28832934201D990
:10258C00032395E04C4B1B6A03F00203002BEED1A6
:10259C00FB7D012B05D1484BDB69474A23F0805367
:1025AC00D3617B68DB69002B00F08180424B5B6858
:1025BC0003F00C03082B61D07B68DB69022B46D13E
:1025CC003F4B00221A60FFF723FB386108E0FFF74E
:1025DC001FFB02463B69D31A022B01D9032367E088
:1025EC00354B1B6803F00073002BF0D17B681B6A22
:1025FC00B3F5803F08D1304B5B6823F400327B6825
:10260C009B682D4913434B602B4B5B6823F474126E
:10261C007B68196A7B685B6A0B43274913434B60E1
:10262C00274B01221A60FFF7F3FA386108E0FFF735
:10263C00EFFA02463B69D31A022B01D9032337E088
:10264C001D4B1B6803F00073002BF0D02FE01C4BCC
:10265C0000221A60FFF7DCFA386108E0FFF7D8FABD
:10266C0002463B69D31A022B01D9032320E0124BFB
:10267C001B6803F00073002BF0D118E07B68DB695A
:10268C00012B01D1012313E00B4B5B68FB60FB6852
:10269C0003F480327B681B6A9A4206D1FB6803F410
:1026AC0070127B685B6A9A4201D0012300E0002320
:1026BC0018461837BD4680BD00100240007000401F
:1026CC006000424280B584B000AF786039607B68AE
:1026DC00002B01D10123D0E06A4B1B6803F00703E8
:1026EC003A689A4210D9674B1B6823F00702654978
:1026FC003B6813430B60634B1B6803F007033A689A
:10270C009A4201D00123B8E07B681B6803F00203F6
:10271C00002B20D07B681B6803F00403002B05D032
:10272C00594B5B68584A43F4E06353607B681B6801
:10273C0003F00803002B05D0534B5B68524A43F45B
:10274C0060535360504B5B6823F0F0027B689B68CE
:10275C004D4913434B607B681B6803F00103002B4E
:10276C0040D07B685B68012B07D1474B1B6803F497
:10277C000033002B15D101237FE07B685B68022BB3
:10278C0007D1414B1B6803F00073002B09D10123C7
:10279C0073E03D4B1B6803F00203002B01D10123B6
:1027AC006BE0394B5B6823F003027B685B6836494E
:1027BC0013434B60FFF72CFAF8600AE0FFF728FA96
:1027CC000246FB68D31A41F28832934201D90323A3
:1027DC0053E02D4B5B6803F00C027B685B689B003D
:1027EC009A42EBD1274B1B6803F007033A689A42D5
:1027FC0010D2244B1B6823F0070222493B68134379
:10280C000B60204B1B6803F007033A689A4201D017
:10281C00012332E07B681B6803F00403002B08D013
:10282C00194B5B6823F4E0627B68DB681649134341
:10283C004B607B681B6803F00803002B09D0124B1C
:10284C005B6823F460527B681B69DB000E49134301
:10285C004B6000F021F802460B4B5B681B0903F040
:10286C000F030A49CB5C22FA03F3094A1360094BA4
:10287C001B681846FFF78AF9002318461037BD4627
:10288C0080BD00BF0020024000100240B0310008A3
:10289C00580000205C00002080B487B000AF0023FB
:1028AC00FB600023BB6000237B6100237B60002363
:1028BC003B611E4B5B68FB60FB6803F00C03042B55
:1028CC0002D0082B03D027E0194B3B6127E0FB68B3
:1028DC009B0C03F00F03174AD35C7B60FB6803F47B
:1028EC008033002B10D0114B5B685B0C03F00103A1
:1028FC00114AD35CBB607B680D4A02FB03F2BB68D8
:10290C00B2FBF3F37B6104E07B680C4A02FB03F33C
:10291C007B617B693B6102E0054B3B6100BF3B691E
:10292C0018461C37BD4680BC704700BF00100240E3
:10293C0000127A00C0310008D031000800093D00B7
:10294C0080B485B000AF78600A4B1B680A4AA2FBC2
:10295C0003235B0A7A6802FB03F3FB6000BFFB688E
:10296C005A1EFA60002BF9D100BF00BF1437BD46C8
:10297C0080BC704758000020D34D621080B582B0E7
:10298C0000AF78607B68002B01D1012341E07B68AC
:10299C0093F83D30DBB2002B06D17B68002283F824
:1029AC003C207868FFF75AF87B68022283F83D20B8
:1029BC007B681A687B6804331946104600F056FA97
:1029CC007B68012283F846207B68012283F83E2035
:1029DC007B68012283F83F207B68012283F840202A
:1029EC007B68012283F841207B68012283F8422016
:1029FC007B68012283F843207B68012283F8442002
:102A0C007B68012283F845207B68012283F83D20F6
:102A1C00002318460837BD4680BD000080B485B041
:102A2C0000AF78607B6893F83D30DBB2012B01D0AE
:102A3C00012335E07B68022283F83D207B681B680C
:102A4C00DA687B681B6842F00102DA607B681B68FD
:102A5C00164A934209D07B681B68B3F1804F04D0AF
:102A6C007B681B68124A934211D17B681B689B6878
:102A7C0003F00703FB60FB68062B10D07B681B6818
:102A8C001A687B681B6842F001021A6007E07B68D9
:102A9C001B681A687B681B6842F001021A600023ED
:102AAC0018461437BD4680BC704700BF002C01404F
:102ABC000004004080B584B000AF78607B681B6870
:102ACC00DB68FB607B681B681B69BB60BB6803F041
:102ADC000203002B20D0FB6803F00203002B1BD059
:102AEC007B681B686FF002021A617B6801221A77FF
:102AFC007B681B689B6903F00303002B03D0786889
:102B0C0000F098F905E0786800F08BF9786800F02F
:102B1C009AF97B6800221A77BB6803F00403002B38
:102B2C0020D0FB6803F00403002B1BD07B681B68D0
:102B3C006FF004021A617B6802221A777B681B68AB
:102B4C009B6903F44073002B03D0786800F072F992
:102B5C0005E0786800F065F9786800F074F97B6836
:102B6C0000221A77BB6803F00803002B20D0FB6807
:102B7C0003F00803002B1BD07B681B686FF0080266
:102B8C001A617B6804221A777B681B68DB6903F087
:102B9C000303002B03D0786800F04CF905E078684B
:102BAC0000F03FF9786800F04EF97B6800221A7744
:102BBC00BB6803F01003002B20D0FB6803F010035C
:102BCC00002B1BD07B681B686FF010021A617B68AE
:102BDC0008221A777B681B68DB6903F44073002BAF
:102BEC0003D0786800F026F905E0786800F019F950
:102BFC00786800F028F97B6800221A77BB6803F02C
:102C0C000103002B0CD0FB6803F00103002B07D051
:102C1C007B681B686FF001021A617868FEF71CFE76
:102C2C00BB6803F08003002B0CD0FB6803F080031F
:102C3C00002B07D07B681B686FF080021A617868E4
:102C4C0000F06FFABB6803F04003002B0CD0FB685C
:102C5C0003F04003002B07D07B681B686FF0400229
:102C6C001A61786800F0F8F8BB6803F02003002BB9
:102C7C000CD0FB6803F02003002B07D07B681B688B
:102C8C006FF020021A61786800F042FA00BF10372A
:102C9C00BD4680BD80B584B000AF7860396000233C
:102CAC00FB737B6893F83C30012B01D10223B4E019
:102CBC007B68012283F83C207B68022283F83D204C
:102CCC007B681B689B68BB60BB6823F07703BB60A9
:102CDC00BB6823F47F43BB607B681B68BA689A604F
:102CEC003B681B68B3F5005F3ED0B3F5005F00F2A4
:102CFC008780B3F5805F00F08680B3F5805F7FD866
:102D0C00702B1AD0702B7BD8602B50D0602B77D8BF
:102D1C00502B3CD0502B73D8402B58D0402B6FD815
:102D2C00302B64D0302B6BD8202B60D0202B67D865
:102D3C00002B5CD0102B5AD062E07B6818683B6883
:102D4C0099683B685A683B68DB6800F06AF97B68F5
:102D5C001B689B68BB60BB6843F07703BB607B68F8
:102D6C001B68BA689A604FE07B6818683B68996882
:102D7C003B685A683B68DB6800F053F97B681B685A
:102D8C009A687B681B6842F480429A603CE07B68DE
:102D9C0018683B6859683B68DB681A4600F0CAF84B
:102DAC007B681B685021184600F021F92CE07B68E9
:102DBC0018683B6859683B68DB681A4600F0E8F80D
:102DCC007B681B686021184600F011F91CE07B68D9
:102DDC0018683B6859683B68DB681A4600F0AAF82B
:102DEC007B681B684021184600F001F90CE07B68F9
:102DFC001A683B681B681946104600F0F8F803E0A7
:102E0C000123FB7300E000BF7B68012283F83D20A7
:102E1C007B68002283F83C20FB7B18461037BD46AC
:102E2C0080BD80B483B000AF786000BF0C37BD4666
:102E3C0080BC704780B483B000AF786000BF0C37A3
:102E4C00BD4680BC704780B483B000AF786000BFD3
:102E5C000C37BD4680BC704780B483B000AF78603F
:102E6C0000BF0C37BD4680BC7047000080B485B0F5
:102E7C0000AF786039607B681B68FB607B682B4A0D
:102E8C00934207D07B68B3F1804F03D07B68284A0C
:102E9C00934208D1FB6823F07003FB603B685B68CE
:102EAC00FA681343FB607B68204A934207D07B6827
:102EBC00B3F1804F03D07B681D4A934208D1FB6865
:102ECC0023F44073FB603B68DB68FA681343FB60D8
:102EDC00FB6823F080023B685B691343FB607B68F3
:102EEC00FA681A603B689A687B68DA623B681A6811
:102EFC007B689A627B680D4A934203D13B681A69DE
:102F0C007B681A637B6801225A617B681B6903F03A
:102F1C000103002B05D07B681B6923F001027B6841
:102F2C001A6100BF1437BD4680BC7047002C0140AD
:102F3C000004004080B487B000AFF860B9607A60DC
:102F4C00FB681B6A7B61FB681B6A23F00102FB6850
:102F5C001A62FB689B693B613B6923F0F0033B61A0
:102F6C007B681B013A6913433B617B6923F00A03BD
:102F7C007B617A69BB6813437B61FB683A699A6130
:102F8C00FB687A691A6200BF1C37BD4680BC70476B
:102F9C0080B487B000AFF860B9607A60FB681B6AD8
:102FAC007B61FB681B6A23F01002FB681A62FB68EA
:102FBC009B693B613B6923F470433B617B681B035A
:102FCC003A6913433B617B6923F0A0037B61BB68C7
:102FDC001B017A6913437B61FB683A699A61FB6850
:102FEC007A691A6200BF1C37BD4680BC704780B43A
:102FFC0085B000AF786039607B689B68FB60FB68CC
:10300C0023F07003FB603A68FB68134343F007033B
:10301C00FB607B68FA689A6000BF1437BD4680BCC1
:10302C00704780B487B000AFF860B9607A603B60DD
:10303C00FB689B687B617B6923F47F437B613B6806
:10304C001A027B681A43BB6813437A6913437B618A
:10305C00FB687A699A6000BF1C37BD4680BC70471C
:10306C0080B485B000AF786039607B6893F83C30F1
:10307C00012B01D1022341E07B68012283F83C2023
:10308C007B68022283F83D207B681B685B68FB60D1
:10309C007B681B689B68BB60FB6823F07003FB605C
:1030AC003B681B68FA681343FB607B681B68FA6813
:1030BC005A607B681B68144A934209D07B681B6872
:1030CC00B3F1804F04D07B681B68104A93420CD13B
:1030DC00BB6823F08003BB603B685B68BA68134332
:1030EC00BB607B681B68BA689A607B68012283F8B6
:1030FC003D207B68002283F83C20002318461437BF
:10310C00BD4680BC704700BF002C0140000400404D
:10311C0080B483B000AF786000BF0C37BD4680BC74
:10312C00704780B483B000AF786000BF0C37BD46E9
:10313C0080BC704770B500260C4D0D4C641BA41060
:10314C00A64209D100F022F800260A4D0A4C641B55
:10315C00A410A64205D170BD55F8043B9847013622
:10316C00EEE755F8043B98470136F2E7D4310008F6
:10317C00D4310008D4310008D83100080346024489
:10318C00934200D1704703F8011BF9E7F8B500BF73
:10319C00F8BC08BC9E467047F8B500BFF8BC08BC2C
:0431AC009E46704784
:1031B00000000000000000000102030406070809E7
:1031C00002030405060708090A0B0C0D0E0F101068
:0431D00001020000F8
:0431D40031010008BD
:0431D8000D010008DD
:1031DC0001000000010000000100000001000000DF
:1031EC0001000000010000000100000001000000CF
:1031FC0001000000010000000100000001000000BF
:10320C00C8000000C8000000C8000000B80B000097
:10321C0088130000D0070000B80B000088130000D2
:10322C00D00700000A00000000127A001000000015
:04323C00010000008D
:0400000508001B21B3
:00000001FF
